:1020000000800020C57D0000857C0000AD7D0000C3
:1020100000000000000000000000000000000000C0
:10202000000000000000000000000000AD7D000086
:102030000000000000000000AD7D0000197E0000DF
:10204000AD7D0000AD7D0000AD7D0000693E00006B
:102050004D7C0000AD7D000069480000B17D0000AE
:10206000AD7D0000AD7D0000AD7D0000814500002C
:10207000AD7D0000915A0000AD7D0000AD7D0000F7
:10208000AD7D0000AD7D0000AD7D0000AD7D0000A8
:1020900000000000AD7D0000AD7D0000353E000079
:1020A000AD7D0000AD7D0000AD7D0000AD7D000088
:1020B0000000000010B5064C2378002B07D1054B1B
:1020C000002B02D0044800E000BF0123237010BDA4
:1020D000B003002000000000F4910100044B10B593
:1020E000002B03D00349044800E000BF10BDC046E8
:1020F00000000000B4030020F491010007B5044B78
:10210000002200930321034B034801F053FC07BD59
:102110004805002008040020F804002010B50A4CEF
:102120000121200003F078FA011E02D0FFF7E6FF3C
:1021300010BD200003F0F2F9044B054A02210548C6
:1021400001F010FDF4E7C046D00300204805002050
:1021500008040020F804002070B50A4D0121280071
:1021600003F05AFA041E02D0FFF7C8FF70BD010049
:10217000280003F0D3F9044B044A2100044801F07D
:10218000F1FCF3E7D00300204805002008040020FC
:10219000F804002010B50A4C0121200003F03CFA9D
:1021A000011E02D0FFF7AAFF10BD200003F0B6F910
:1021B000044B054A0121054801F0D4FCF4E7C04670
:1021C000D00300204805002008040020F804002067
:1021D00073B5E121374D4902280004F0DFF9364894
:1021E00005F05EFE3549280003F026FD344E300030
:1021F00002F062F80A2005F053FE324C6B213200E7
:10220000200001F051FF3049002804D12F49280057
:1022100003F012FD2E49280003F00EFD802201215B
:10222000200001F0E0FE40221721200001F0DBFE3B
:1022300011220221200001F0D6FE83220821200075
:1022400001F0D1FE05220921200001F0CCFE002280
:102250001721200001F0C7FE08220421200001F010
:10226000C2FE10220521200001F0BDFE08220A2135
:10227000200001F0B8FE6B46DD1D2900642220001D
:1022800001F053FE80232A7864211A43200001F0D4
:10229000AAFE00220121200001F0A5FE02225E21FB
:1022A000200001F0A0FE48221021200001F09BFE3A
:1022B00073BDC04660230020C409000015FD000066
:1022C00048060020880400201DFD000024FD0000B9
:1022D0003EFD0000F0B5334C85B03349200003F0DB
:1022E00099FC3249200003F095FC314D032628006B
:1022F00001F06CFF08F0B8FF009602000B00200010
:1023000003F094FD2B49200003F084FC280001F029
:1023100066FF08F0A9FF009602000B00200003F002
:1023200085FD2549200003F075FC280001F060FFC1
:1023300008F09AFF0E2702000B000096200003F021
:1023400075FD1E49200003F065FC1D4E1D4B31003C
:102350001A685B68200003F079FC1B49200003F039
:1023600059FC6F4480220121280001F03CFE390015
:102370006222280001F02DFE00220121280001F038
:1023800032FE0023FA5E3100200003F05FFC0920DA
:1023900006F020F831000200200003F057FC05B0E1
:1023A000F0BDC04660230020D8FC0000E9FC00001E
:1023B00088040020EFFC0000F5FC0000FBFC00009E
:1023C000714701004805002004FD000037B50121D8
:1023D000154803F021F9154C00280FD00123144DA6
:1023E00014492A6820005340134A2B6000F004FB74
:1023F00029680D2005F0C2FFFFF76CFF2168012955
:102400000CD10E4803F008F9002807D00A4B00222F
:1024100000930421074B200001F0CCFA002108486A
:1024200003F0FAF837BDC046C0040020F8040020CD
:10243000000000200804002048050020500400206F
:10244000D003002010B501221549164803F062F9A7
:1024500088221549154803F05DF9154801F0FCFD87
:102460000621144803F060FAFA211348490003F0EA
:10247000FBF80221114803F0F7F8114C02221E214B
:10248000200003F01BF902223C210E4803F016F94C
:102490000D4801F075FC21000C4800F093F810BDC8
:1024A00000FE00003804002000FF0000D0050020DE
:1024B0008804002008040020C0040020E805002053
:1024C00050040020D003002048050020F80400201C
:1024D00070B53448A4B002AC43690169220003F02E
:1024E00093F92378304E314D2000002B4CD101F070
:1024F00047FC84222100300009F02EF888223100A8
:10250000200009F029F86A692969280003F06AF9AE
:102510006B6922002969280003F014F901210D20BC
:1025200005F0FCFE0121062005F0F8FE0221032043
:1025300005F0F4FE0221080005F0F0FE0221012062
:1025400005F0ECFE03221A49022005F0C3FA03222B
:102550001849100005F0BEFA03221749012005F0C2
:10256000B9FAFFF735FE154C200003F021FA2000E0
:10257000012102F018FB00962300002203211048DD
:1025800001F018FA24B070BD01F0FAFB22002969AD
:1025900028006B6903F038F984222100300008F02C
:1025A000DBFFBBE73804002048050020D0050020F1
:1025B000592100001D210000952100000804002081
:1025C000F804002070B50D00010000230200040093
:1025D0004B310360436003810B320B7013705370F7
:1025E0009370D370137153719371D3710832914208
:1025F000F4D1032005F030FE05F054FB402005F037
:1026000057FBA072E564200070BD0000F0B5060025
:1026100091B0169C0B9323680E921B6B0D0020004B
:1026200001219847179801F0E1FB727A317A531E25
:102630009A41D2B201F082FB0B9B0D905A1E93413E
:1026400001330A935B080493102307930023069336
:10265000049B5D19ABB20F93069B1B01DBB2089381
:102660001033DBB20C936B461B8D0993099A069BC2
:1026700053430E9A9B189BB21AB20392049A9B186A
:102680001BB205930F9B019300230293284B0299E1
:102690001A68089B5B18DBB2013202D10C9B5B1AF3
:1026A000DBB20D9A5B00D3180093224A1B88934239
:1026B00025D0019A04992000561A226836B215696D
:1026C0003100039AA8476B46226804255D5F009B92
:1026D00017692900039A20001B88B8472268009BCD
:1026E00017693100059A20001B88B8472268009BB3
:1026F00016691B88059A29002000B04702E00B9A52
:10270000002AD6D1099A029B944601330293019B79
:1027100063449BB20193029B102BB7D1069B0133FC
:102720000693079B013B0793002B95D111B0F0BD99
:1027300034000020FFFF0000F0B591B0169C0C9310
:1027400023680D000E921B6B0121200098470C9B03
:102750005A1E934101330B935B0805931023089392
:1027600000230793059B5D19ABB20F93079B1B01D9
:10277000DBB209931033DBB20D936B469B8D0A934A
:102780000A9A079B53430E9A9B189BB21AB2049263
:10279000059A9B181BB206930F9B02930023039389
:1027A000284B03991A68099B5B18DBB2013202D1EE
:1027B0000D9B5B1ADBB2244A5B009B180193234AF2
:1027C0001B88934225D0029A05992000561A226848
:1027D00036B215693100049AA8476B46226808256D
:1027E0005D5F019B17692900049A20001B88B84788
:1027F0002268019B17693100069A20001B88B847A0
:102800002268019B16691B88069A29002000B047A0
:1028100002E00C9A002AD6D10A9A039B944601330F
:102820000393029B63449BB20293039B102BB7D18B
:10283000079B01330793089B013B0893002B95D11D
:1028400011B0F0BD3400002020300100FFFF000077
:10285000F0B50C000B688BB0059207001B6B0121D3
:1028600020009847059801F0C1FA0600236800216E
:102870005B6C20009847300001F046FA7A7A397A8A
:10288000531E9A410500D2B2300001F057FA414B75
:1028900000220293802311000193009320003E4BFD
:1028A00002F0BFFA059B302201930A210123380070
:1028B0000094FFF7ABFE394907A805F04CFA3078D1
:1028C000042808D805F0FAFE0363615D5F0034490F
:1028D00007A805F05FFAFE212000890502F019FE25
:1028E0000122E31CDA772F4B07A923612E4B20002E
:1028F000636103F088F923686A881B680C21002A49
:1029000000D10B2120009847284B20002361284943
:1029100002F0FFFD2A882749200003F097F9264B93
:1029200026492361AA88200003F090F9244B254909
:102930002361EA88200003F089F9234B23492361AE
:102940002A89200003F082F9214B224923616A89F8
:10295000200003F07BF9204B20492361AA89200045
:1029600003F074F91E4B1F492361EA89200003F02C
:102970006DF9200003F038F807A805F0A4F90BB0B2
:10298000F0BD1949A4E71949A2E71949A0E7194977
:102990009EE7C046FFFF000040360100F68C0100B4
:1029A00000470100230008000000FFFF3C001C005E
:1029B0000000A03F1D4701003C00280028470100FF
:1029C0003C003400324701003C0040003C4701001D
:1029D0003C004C00464701003C00620050470100AB
:1029E0003C006E005A470100FC460100064701000A
:1029F0000D47010016470100F0B50C0005000B68FB
:102A000085B01B6B03920121200098472B68012B96
:102A100012D0022B0ED16A7A013B5A406A72039A95
:102A20000A210192302200942800FFF7EFFD2000D8
:102A300002F0DAFF05B0F0BD6A7A154E154F6868EE
:102A400053406B7231683A68042810D81023120181
:102A5000090112B209B20193009305F02FFE031190
:102A6000131517000C4B1B68200002F035FA3A686A
:102A70003168039B12010193090100940023D3E7FD
:102A8000064BF0E7064BEEE7064BECE7064BEAE7B2
:102A90002406002028060020240000203C000020FE
:102AA0006C000020840000204C000020F0B513686A
:102AB0000D0085B01B6B0121100014009847032DF9
:102AC0002FD0042D54D0022D29D10123102602939A
:102AD0000322236802991B6B114020009847374F4F
:102AE000019600963B6900227021200002F0F4F963
:102AF00010252AB20196009610357B6970212000BE
:102B0000ADB202F0E9F9702DF3D1029B01330293CB
:102B1000052BDDD1236801211B6B2000984705B0F0
:102B2000F0BD0123102602930395039A23680299AE
:102B30001B6B114020009847214F019600963B697E
:102B400000227021200002F0C7F910252AB2019658
:102B5000009610357B6970212000ADB202F0BCF9FF
:102B6000702DF3D1029B01330293052BDDD1D1E708
:102B70000123102602930322236802991B6B114044
:102B8000200098470F4F019600963B690022702164
:102B9000200002F0A1F910252AB201960096103506
:102BA0007B6970212000ADB202F096F9702DF3D14F
:102BB000029B01330293052BDDD1ABE76C000020B3
:102BC000840000204C000020F0B58BB00593136802
:102BD0000D0004901B6B0121100014009847042D78
:102BE0004FD8280005F074FD05006600C3002701DA
:102BF0009801049B10250893002306936B46182721
:102C0000DF5F00230793079A089B9B18DA7A079BDC
:102C10001B0109936B4624269E5FB94B01950095D5
:102C2000002A06D11B6832003900200002F054F956
:102C300019E0012A01D15B68F5E7022A01D19B68FE
:102C4000F1E7042A22D11B6832003900200002F08B
:102C500043F9AC4B029500930195AB4B3200390020
:102C6000200002F078F9079B01330793082BCAD1A3
:102C7000069B10330693089B08330893069B802B12
:102C8000BCD1200002F0B0FE0BB0F0BD052A0FD180
:102C90003200390020001B6802F01EF9059B0094E9
:102CA0000193099A002306990498FFF7AFFCDAE72D
:102CB000DB68B8E7049B10250893002306936B4656
:102CC0001827DF5F00230793079A089B9B18DA7A7F
:102CD000079B1B0109936B4624269E5F8B4B019536
:102CE0000095002A06D11B6832003900200002F04E
:102CF000F3F819E0012A01D15B68F5E7022A01D156
:102D00009B68F1E7042A1ED11B68320039002000BD
:102D100002F0E2F87B4B0295009301957A4B32006A
:102D20003900200002F017F9079B01330793082BA5
:102D3000CAD1069B10330693089B08330893069B61
:102D4000802BBCD19DE7052A0FD13200390020002D
:102D50001B6802F0C1F8059B00940193099A0023B7
:102D600006990498FFF752FCDEE7DB68BCE7059B99
:102D7000220002210498FFF799FE049B0833089370
:102D800010231D0006936B461827DF5F012307936E
:102D9000079A089B9B18DA7A079B1B0109936B46DD
:102DA00024269E5F5A4B01950095002A06D11B6888
:102DB00032003900200002F08FF819E0012A01D119
:102DC0005B68F5E7022A01D19B68F1E7042A1ED16E
:102DD0001B6832003900200002F07EF8494B029552
:102DE00000930195484B32003900200002F0B3F8FF
:102DF000079B01330793072BCAD1069B1033069319
:102E0000089B08330893069B702BBCD139E7052A31
:102E10000FD13200390020001B6802F05DF8059BDD
:102E200000940193099A002306990498FFF7EEFB9A
:102E3000DEE7DB68BCE7059B220003210498FFF76F
:102E400035FE049B0833089310231D0006936B4640
:102E50001827DF5F01230793079A089B9B18DA7AEC
:102E6000079B1B0109936B4624269E5F294B019506
:102E70000095002A06D11B6832003900200002F0BC
:102E80002BF819E0012A01D15B68F5E7022A01D18C
:102E90009B68F1E7042A1ED11B683200390020002C
:102EA00002F01AF8174B029500930195164B320069
:102EB0003900200002F04FF8079B01330793072BDE
:102EC000CAD1069B10330693089B08330893069BD0
:102ED000702BBCD1D5E6052A0FD132003900200075
:102EE0001B6801F0F9FF059B00940193099A0023E8
:102EF00006990498FFF78AFBDEE7DB68BCE7C0466B
:102F00002400002020360100203001003C00002079
:102F10006C00002084000020059B220004210498FE
:102F2000FFF7C4FD049B0833089310231D0006938C
:102F30006B461827DF5F01230793079A089B9B18AE
:102F4000DA7A079B1B0109936B4624269E5F244B6C
:102F500001950095002A06D11B6832003900200037
:102F600001F0BAFF19E0012A01D15B68F5E7022AF6
:102F700001D19B68F1E7042A1ED11B683200390099
:102F8000200001F0A9FF174B029500930195164B05
:102F900032003900200001F0DEFF079B0133079368
:102FA000072BCAD1069B10330693089B083308935E
:102FB000069B702BBCD164E6052A0FD13200390084
:102FC00020001B6801F088FF059B00940193099A7B
:102FD000002306990498FFF719FBDEE7DB68BCE7DE
:102FE0004C00002020360100203001000020072A7C
:102FF00006D8072B04D8D200C9188B5C0130584082
:1030000070470000F0B50D000B68040087B01B6B23
:10301000012128009847402004F04AFE0723C117E9
:1030200019400918274FCB1006000493074004D518
:103030000823013F5B421F430137049BDB000593DC
:10304000E318DB19D87A0028E5D10723A27AD10842
:103050001A40CB00E3189B18D8726068042810D877
:1030600010231201090112B209B20193009305F075
:1030700025FB032123252700134B1B68280001F0A3
:103080002BFF059BA672E4180423E419E372049B4A
:103090003A0119011023029301930C4B12B209B2A9
:1030A000009328000A4B01F056FF280002F09CFC18
:1030B00007B0F0BD074BE0E7074BDEE7074BDCE767
:1030C000074BDAE7070000802400002020360100CB
:1030D000203001003C0000206C0000208400002013
:1030E0004C00002070B504000826402004F0E0FDEC
:1030F00007257642C3172B400B4A1B18DB100240F2
:1031000002D5013A32430132DB00E3189B181A0062
:10311000DB7A0B32002B03D0402004F0C9FDE9E735
:103120000423A072137070BD07000080F0B585B055
:10313000040002920393012908D0002926D0022915
:1031400016D0029802F050FC05B0F0BD434B444D40
:1031500019685A6848422A6068601A605860002AF4
:1031600002D001232372ECE74B1C0DD10223F9E7B7
:103170003A4B3B4D59681A68484228606A6005C35B
:103180000029EED1012AF1D00023EBE7354E334D73
:1031900031682B68CB18072BD3D8334F68683A684F
:1031A000101A0728CDD8DB00E3181B18DB7A002B98
:1031B0000ED16068042824D81201090112B210232C
:1031C00009B20193009305F079FA1741434547008E
:1031D000042BB6D1254A20001378029901331370CD
:1031E000039AFFF70FFF606804280AD83A6831682D
:1031F000120112B20901E2E71D4B1B68029801F0AF
:103200006BFE194E6A683368164F9A1A39682B6834
:1032100012015918039B09010193029B200000939E
:103220000023FFF7F3F900203B683268D9006118EA
:103230008918C87229685B1869683B60DB00521AFC
:10324000E3189B1832600522DA727AE7094BD4E75B
:10325000094BD2E7094BD0E7094BCEE734000020F9
:1032600064000020240600202806002020060020FC
:10327000240000203C0000206C000020840000207E
:103280004C000020F0B50C000B6887B007000592D9
:103290001B6B012120009847002580230295019394
:1032A00000932A00384B2900200001F0BAFD7E6807
:1032B000012E4DD0022E30D0AE4219D12023302223
:1032C0000193110000932000304B029601F0A9FDFC
:1032D000059B382201933100330038000094FFF73A
:1032E00095F900943300382270213800FFF724FA52
:1032F000274B80212361002320006361C90502F070
:1033000008F9059B23491A685B68200002F09EFCBF
:10331000200002F069FB07B0F0BD3022059B1100D0
:103320000193380000940123FFF770F92B00290066
:10333000380000943822FFF7FFF91023029501931B
:1033400000933822144B7021200001F06AFDCFE772
:1033500030223300110038000094FFF7EDF91023FC
:10336000290001930093200002950B4B382201F0B5
:1033700058FD059B0094019338222B0070213800E2
:10338000FFF744F9B4E7C046403E01004046010063
:103390000200020071470100C046010070B50C0038
:1033A0000B6820001B6B0121160098471E4D2B78DF
:1033B0000E2B35D903233372FF211C4B20002361D0
:1033C000890502F0A6F81A49200002F035FC802198
:1033D000184B20002361C90502F09BF82A78164992
:1033E000200002F033FCFE21144B200023618905EC
:1033F00002F08FF8327A1249200002F027FC0023F5
:103400000121104A2000136051600F4A2B70136095
:1034100051600E4A13600E4A136002F0E5FA70BD67
:10342000092BC9D90223C6E720060020110020007D
:10343000E046010036002B0023470100160048003B
:10344000EC46010034000020640000202406002027
:1034500028060020F0B50C000B6887B005901B6BA8
:103460000121200016009847FF2110254B4B8905AC
:103470002361200002F04DF832687368484920004B
:1034800002F0E4FB474B48492361327A200002F006
:10349000DDFB464B019500951B6848220821200062
:1034A00001F01AFD424B019500955B6848222021EE
:1034B000200001F011FD3F4B019500955B6948220A
:1034C0003821200001F008FD3B4B019500955B6918
:1034D00048225021200001F0FFFC384B0195009557
:1034E0005B6948226821200001F0F6FC0A350022C1
:1034F0002368009229B21835DF6B50320423200074
:10350000ADB2B8477A2DF2D11027767A623D754375
:103510000835042E0DDC002329B202930197009791
:10352000274B48222000183501F07BFC0136ADB254
:10353000EFE700221825059F5C264B37BA5600207E
:103540006A4392B2130011001032029612B203368F
:1035500012330D3103900192200032001BB209B2E8
:10356000009601F051FB0023FB5600205D43ADB2F5
:103570002B0029005C220F352DB212330D311BB206
:1035800009B203900292200032000195009601F0EA
:103590003BFB200002F028FA07B0F0BD0400040055
:1035A0006447010004002400754701002400002046
:1035B0003C0000206C000020840000204C00002013
:1035C000000A0100036870B50400002B0BD0436AA9
:1035D00045691E1DAE4203D901CD04F0B7FCF9E7E1
:1035E000206804F0B3FC200070BD0000F7B5026A4B
:1035F0008369083A04000191934207D0002B02D05E
:103600001A0021C921C20833A361F7BD436A0268C9
:103610004668991A8910711A012922D841695D1AE0
:10362000AD106F1C7D1C6800864238D9751B6D0873
:10363000AD00551904335A1AA94228D928009942D5
:103640002AD180222B689200E3609B182361254BCE
:103650006561FB189B00ED182B686562E3619B18A0
:10366000236280208000656A04F06CFC6860A369B6
:10367000002B02D0019A03CA03C3636A1A1D626257
:1036800080225B6892009A18E3612262BCE7B8006E
:103690009942D6D0801A281807F067FFD1E7012396
:1036A000002E00D033000236F6180E4B9E4201D990
:1036B00005F000F8B00004F045FC751B636A6D0866
:1036C0006169AD001A1D009045198A4203D0521A53
:1036D000280007F04AFF206804F038FC009B666071
:1036E0002360AEE7FFFFFF3FF0B51F00002393B05C
:1036F000019008930A930B930C930D930E930F93E1
:10370000109311932020083315000E00099304F044
:1037100019FC099B08905C1E6408A4000419802011
:103720008000029304F00EFC80239B00C3182060ED
:103730000B900F900A900E9006A908A80C93109376
:10374000069507970D941194FFF750FF0123ED00A4
:10375000F7197B5505930A9B0E9A9A4240D01A6836
:103760000B9802925A6803920C9A0492083A934278
:103770002AD0083300250A931C4B3100EF58029BD6
:103780000198DF191A4B3A00EC58039B1C192300CF
:10379000FFF72CFC002813D0FB000493019BFA00D8
:1037A0009B181B19DB7A002B0AD106A908A80794DD
:1037B0000697FFF71BFF6A46049B127D3419E254FB
:1037C0000435102DD8D1C6E704F0C0FB0D9B1A1D9F
:1037D0000D9280225B6892009A180B930C92C9E7B5
:1037E00008A8FFF7EFFE13B0F0BDC046140000209C
:1037F00004000020F0B504000700002697B00191F6
:103800000025642004F054FA7B190022452806DDC7
:1038100001224F2803DD0222592800DD0322DA723B
:10382000019A023AD2B2029202996A1C02290AD87B
:10383000002E06D0072E04D0002D02D0072D00D078
:1038400093E00321D9721500082ADAD1013608372E
:10385000082ED5D14022002106A807F099FE029B30
:10386000022B00D98BE001231A0006A92000FFF7E4
:103870003BFF0023039401930026019B06AADB0073
:103880009B180593039B9B19DB7A002B2CD1059B7E
:103890009D5D002D28D1434B06A9EF58019B2000C8
:1038A000DF19414B3A00EB58F3180493FFF79EFBE6
:1038B000002816D0049AFB00E3189B18DA7A002A35
:1038C0000FD000274022DF72390006A807F060FE03
:1038D000029B022B55D801231A0006A92000FFF7EE
:1038E00003FF0435102DD6D10136082ECAD1019B15
:1038F00001330193039B08330393019B082BBBD136
:103900000022032015000023D1006118029F5E1CD5
:10391000022F09D8002A05D0072A03D0002B01D096
:10392000072B31D1CB18D8723300082EEED10132DB
:10393000082AE8D12000FFF7D5FB022307202372D5
:10394000A37AD908CA00A2181840C3B2D518ED7AD4
:10395000002D20D1CA00A4180522E418E272134AEF
:103960001160134A136017B0F0BD012E00D06AE752
:10397000012D00D067E700231500237541E70023E0
:1039800072E73B003A00A8E7012ACDD1012BCBD149
:1039900025753300BAE70133082BD7D1013108323E
:1039A000D3E7C046140000200400002024060020B5
:1039B0002806002070B51D001B680E0004005B6C1B
:1039C000234928009847042E0DD83000002304F026
:1039D00075FE03140B2A340023812360049A290006
:1039E0002000FFF737FD70BD23810223049A236076
:1039F00029002000FEF72CFFF5E74B2123816156BB
:103A000020006160C9B2FFF7F5FE63682A00D9B2F1
:103A10002000049BFFF7D8F80021E06C01F07EFD48
:103A200001232360DFE70322636022602381049A7D
:103A300029002000FFF726FCD5E7042263602260FE
:103A40002381049A29002000FFF7A8FCCBE7C04699
:103A5000FFFF0000F7B51F0013680D0004005B6C4A
:103A60001249100016009847012D0FD0002D14D0D8
:103A7000022D08D16368013B06D463603A0031002F
:103A80002000FFF7FFFBF7BD6560F7E763680321E0
:103A9000581C04F097FF6160F0E7009733002A009C
:103AA00061682000FFF786FFEDE7C046FFFF0000DA
:103AB000F7B506000D0017001C00012918D00029D9
:103AC00002D002290BD0F7BD180000F088F900944D
:103AD0003B002A0003213000FFF76CFFF3E71800DA
:103AE00000F099F9220039003000FEF7B1FEEAE754
:103AF000180000F081F9F5E773B5050014001E0009
:103B0000012921D0002902D0022907D073BD0093DA
:103B100013000A000321FFF74DFFF7E702004B32C5
:103B20001378013B5BB21370002B02DA737A013B0E
:103B30001370236820005B6C09499847320021000C
:103B40002800FFF787FCE1E702004B3213780133CE
:103B50005BB21370717A8B42EBDB0023E8E7C0465F
:103B6000FFFF000073B50400006815001E00042864
:103B700007D804F0A3FD030B071A1E002000FFF76F
:103B8000BBFF73BD2000FFF793FFFAE70123627AC2
:103B90002000534063722A003300FFF7C7FA320057
:103BA00029002000FEF728FFEBE72000FFF752FF77
:103BB000E7E700930321130020000022FFF7FAFE3D
:103BC000DFE70000F8B5037D0678013305000375D3
:103BD000042E07D8300004F071FD0375736F710077
:103BE000394B1C68A000C00E05F060FD011C04F0FC
:103BF0009DFFFA21890505F0F9F901F091FF04F024
:103C00005FFF2882E001C00E05F050FD011C04F0AA
:103C10008DFFFA21890505F0E9F901F081FF04F033
:103C20004FFF68822003C00E05F040FD011C04F028
:103C30007DFFFA21890505F0D9F901F071FF04F043
:103C40003FFF28816004C00E05F030FD011C04F028
:103C50006DFFFA21890505F0C9F901F061FF04F053
:103C60002FFF6881A005C00E05F020FD011C04F0A7
:103C70005DFFFA21890505F0B9F901F051FF04F063
:103C80001FFFA8811F20204005F010FD011C04F03B
:103C90004DFFFA21890505F0A9F901F041FF04F073
:103CA0000FFFE881042E01D8084B1F7832237B4395
:103CB000EF8AFF18EF82F8BD054B92E7054B90E7BE
:103CC000054B8EE7054B8CE7B4000020D4000020A4
:103CD000D8000020F8000020B8000020DC00002000
:103CE000002310B5040003700375FFF76BFF20007D
:103CF00010BD531E9A4110B50400D2010170027527
:103D0000FFF760FF200010BD10B5027D8021140078
:103D1000094B8C43D2111C805A8002899A804289B7
:103D2000DA8082891A81C2895A81028A9A81428AFA
:103D30001800DA8110BDC0462C060020007800B5BE
:103D4000042809D849008918890004F0B7FC030C3D
:103D50000A060800054BC85800BD054BFBE7054B9C
:103D6000F9E7054BF7E7054BF5E7C04614010020DE
:103D70009C000020FC000020BC000020E00000208F
:103D8000F0B504000500060087B00C34843520002F
:103D90001834FFF7A5FFAC42F9D1022300251827FC
:103DA000FF3335607560B360737AAB4214DD022077
:103DB00003F07EFF6C46421E9041E9B2C2B2200081
:103DC000FFF797FF3B006B43F3180C3307CC07C397
:103DD000013507CC07C3E7E7300007B0F0BD182373
:103DE000C27A53430C338272C01870471822C37AC8
:103DF0005A430C328018704710B50400C07A617ABB
:103E00000130C0B204F0F4FC1820C9B248430C30B1
:103E10002018E17210BDC37A427A013BDBB2C37253
:103E2000934201D9013AC2721823C27A53430C3328
:103E3000C0187047042310B5034A117E0B43137654
:103E4000024B5B68984710BD004000423C060020D2
:103E500010B5024800F004F810BDC0463C06002032
:103E60000023037070470000044B10B51B68002B43
:103E700000D098470122024B1A7210BD4406002060
:103E800000140040F7B50193077A04000D001600F6
:103E9000002F03D0012F25D0FF200FE0417AC0680A
:103EA00000F02AFAE068310003681B68984739007F
:103EB000E06800F094FA002801D00120FEBD617A8C
:103EC000019AE06800F061FA0028F6D02E00019A0D
:103ED000731B9A4227D9E06803685B699847307082
:103EE0000136F4E742680168006900F0E3FBA07A5C
:103EF000002104F043FA80212069314300F030FCB6
:103F00002E00019A731B9A4206D90021206900F005
:103F100027FC30700136F4E7A07A012104F02EFA74
:103F2000206900F0E3FB0020C8E7F8B5077A040039
:103F30000E001500002F03D0012F1FD0FF200EE030
:103F4000417AC06800F0D8F9E068290003681B686E
:103F50009847E06800F07BFA002801D00120F8BD06
:103F6000617A0122E06800F010FA0028F6D0E068DB
:103F700003685B69984730700020F0E7807A002181
:103F800004F0FCF962682168206900F093FB80214D
:103F90002069294300F0E4FB0021206900F0E0FBE8
:103FA0003070A07A390004F0E9F9206900F09EFB36
:103FB000E2E737B56B460024DD1DC2604172047232
:103FC0000F222900FFF7B1FF2B786C2B00D12000C6
:103FD0003EBD37B50D0001AC02232100FFF752FFB3
:103FE00023882B803EBDF8B5057A04000F0016002B
:103FF000002D03D0012D16D0002013E0417AC068B7
:1040000000F07AF9E068390003681B689847E068B7
:10401000310003681B689847E06800F018FA431EF7
:104020009841C0B2F8BD42680168006900F042FBE7
:10403000A07A002104F0A2F93900206900F090FB79
:104040003100206900F08CFBA07A290004F096F979
:10405000206900F04BFBCFE710B5C824640044830F
:1040600002240E4BFA21036001220023FF348483D3
:104070000B4C4900C18204625439C41D0275827719
:10408000437103710183E27721342270054A8185EF
:10409000428502002E321370036310BD00093D00FB
:1040A0000800A001B80B000010B50C006A3C00230A
:1040B000012C04D8FFF77DFF43424341DBB21800D7
:1040C00010BD37B56B469D1D282229000400FFF75F
:1040D00080FF002804D0042805D1238E01332386D5
:1040E0000023E85E3EBD638E01336386F8E737B593
:1040F0006B469D1D2A2229000400FFF76AFF002855
:1041000004D0042805D1238E013323860023E85EE2
:104110003EBD638E01336386F8E737B56B469D1D60
:104120002C2229000400FFF754FF002804D00428A3
:1041300005D1238E013323860023E85E3EBD638EC6
:1041400001336386F8E7000037B56B460D00DC1DD0
:1041500021001022FFF7E9FE237828001C07A40F96
:104160009B071CD405F058FA07F07EF8022C10D0FB
:10417000032C11D00F4A012C01D00F4B00E00F4B44
:1041800006F0FAF900220E4B05F0ECFD07F0BEF840
:104190003EBD084A0B4BF3E7064A0B4BF0E705F030
:1041A0003BFA07F061F8022CF3D0032CF4D0014A5B
:1041B000E3E7C04608AC1C5A643BAF3F643BDF3FBB
:1041C00000408F40643BBF3F643BCF3F10B50400CD
:1041D000FFF777FF01002000FFF7B6FF10BD10B515
:1041E0000400FFF784FF01002000FFF7ADFF10BDC2
:1041F00010B50400FFF791FF01002000FFF7A4FFB6
:1042000010BD00207047F8B505000E00170000240F
:10421000BC4208D02B68315D1B68280098470028F5
:1042200001D00134F4E72000F8BD70470300FC33EF
:10423000196ADA69914203D01B6AC018007E704780
:1042400001204042FBE70300FC33D8691B6AC01A17
:1042500001D50130FF307047F7B50193FA2380266E
:10426000002504009B008360124B760008330F008A
:1042700045602900009203603200183007F088F989
:1042800023002000FC332130DD6132001D62290053
:10429000FF3007F07DF987239B00E3185D609D6088
:1042A0006B461B78276123756B461B79A57520002B
:1042B0006375FEBD9083010070B5060018250C499A
:1042C000006902F097F8306901F0F3FE2B00082135
:1042D000307D084C4343E318595604F09DF80821FB
:1042E000707D45436419615604F096F870BDC04670
:1042F000A0860100508B01008A2300229B00C1543C
:104300000C3BC3185A609A60012383757047020002
:1043100010B5FC32536894680133DBB29C4202D082
:1043200054680155536010BDF7B50024050017000F
:1043300001932000A24227D02B00FC33DC611C62D9
:104340000122286901F0F2FEA0421CD02E0018368E
:10435000286901F06BFF013401003000FFF7D7FF3F
:104360002869A74206D001F0C1FE0221286901F0A8
:10437000C7FEEDE701F0B2FE019B002B03D0032145
:10438000286901F0BDFEE0B2FEBD10B50123FFF7C4
:10439000CBFF10BD002210B5837D93420DD0872343
:1043A0009B00C4186368A4680133DBB2A34204D045
:1043B0002130FF30FFF7ABFF0122100010BD0300DA
:1043C000FC3399685A68914206D09A68805C9A6872
:1043D0000132D2B29A60704701204042FBE70022CE
:1043E0008A2370B59B00827505000E00C15C0069D0
:1043F00001F09CFE002806D10321286901F080FE0F
:104400000224200070BD872328009B00EA1853680F
:1044100094682130FF301C1B01D50134FF34002C7F
:104420000ED02C69FFF7CBFFC1B2200001F0BCFE1B
:104430000028E8D10321286901F062FE0324E0E7A7
:10444000002EDED00321286901F05AFED9E710B50D
:104450000121FFF7C4FF10BD10B51830FFF7AFFF03
:1044600010BD70B50400006901F0BEFE002814D034
:10447000206901F0C7FE002810D0206901F036FE47
:104480000321206901F03CFE8C239B00E558002DA0
:1044900039D10023FC34E361236270BD206901F04F
:1044A000BBFE002809D0206901F0B1FE002804D02D
:1044B000206901F0B6FE0028DFD0206901F0ACFED3
:1044C000002826D1206901F098FE0028E5D0206957
:1044D00001F0A7FE002837D087239B00E21853681D
:1044E00092689B1A01D50133FF33FF21002B05D0C1
:1044F00020002130FF30FFF762FFC1B2206901F0D8
:1045000065FEA075C9E7236820001B699847A84786
:10451000BFE7206901F0EAFD2069032101F0F0FD09
:10452000206901F07EFE0028B7D0872300229B007F
:10453000E3185A609A600123A3758B239B00E3580C
:104540009342AAD09847A8E72200FC32D369126AA6
:104550000133DBB22069934206D101F0BFFD032194
:10456000206901F0CDFD98E701F060FE0100200018
:104570001830FFF7CCFE206901F0B8FDEFE700002E
:1045800010B50248FFF76DFF10BDC0464806002079
:1045900010B50523042202490248FFF75DFE10BD55
:1045A0005023002048060020F0B5040085B01E000E
:1045B0000AAB1B78103001930BAB1B7817000293EA
:1045C0000CAB1B780D00039300F01AF92000243087
:1045D00000F016F9220000234032A363E363137056
:1045E00063729D4205D10A4B0A4A22210A4806F00D
:1045F00037FF6B461B79200063716B461B7A256081
:10460000E3716B461B7B2771A671237205B0F0BD69
:10461000B483010029840100C5830100437A002B83
:1046200004D18372C372C36001334372704730B5E3
:10463000040085B002AD00680291039201F0A8FC6D
:104640006B79227AE17900932068002301F0A8FEBB
:104650002979029A206801F0F5FC206801F08EFCAF
:1046600005B030BD70B518260400FFF7D7FF330042
:10467000082120790D4D4343EB18595603F0CCFE29
:1046800033000821A0794343EB18595603F0C4FEC8
:10469000082160794643AD19695603F0BDFE044B0D
:1046A000200006CBFFF7C3FF70BDC046508B010052
:1046B000C008002007B5837A00910192002B07D033
:1046C0009A070AD5EFF310835A425341C37272B668
:1046D0000099019AFFF7ABFF07BDDB07F8D5C36868
:1046E000014A9BB29360F3E700180040837A002BE5
:1046F00005D09A0704D5C37A002B00D062B6704764
:10470000DB07FCD5C368024A9BB2D360F7E7C0461B
:104710000018004010B50068002903D1013101F0F4
:1047200041FC10BD0021FAE710B50300032908D8A9
:10473000080003F0C3FF070B02090021186801F00D
:1047400045FC10BD0121F9E70221F7E70321F5E758
:1047500010B50068032900D8042101F087FC10BDC2
:1047600010B5006801F052FC10BD00001FB5094BE8
:10477000094A0A491A6000225A711A7101230293E8
:104780000193093300930932023B0548FFF70CFF00
:1047900005B000BDC008002000093D0048230020EE
:1047A0007C080020094B1868002809D1EFF310821B
:1047B0000749002A08D172B6BFF35F8F01320A7031
:1047C0001A6801321A6070470870F9E7CC080020B7
:1047D000C8080020084B1A68002A0CD01A68013A51
:1047E0001A601B68002B06D1044B1B78002B02D0EB
:1047F000BFF35F8F62B67047CC080020C808002066
:10480000FF23002110B504000370FC3B4170817050
:10481000C170017143710C22083006F0B9FE20000E
:1048200010BD000001220B0010B5134008D00D4B45
:104830001A70042343708368002B00D0984710BD82
:104840000222114204D007490A704370C368F3E79B
:1048500004231942F3D0034A1370033343700369EE
:10486000EAE7C0464E48004110B5FFF79BFF0C4BEE
:104870001B8C1B071B0F0B2B0FD80A4A990088585B
:1048800000280AD00F2408490A78A24313430B706A
:10489000064B1978C9B2FFF7C5FFFFF79BFF10BDA4
:1048A00000480041D00800203F4800414E480041E8
:1048B0007047F0B51D0089B00EAB00241C5F0FAB34
:1048C0001B8816000693A31ADA179B18534002930D
:1048D0006B1ADA179B1853400393039A029B0190BB
:1048E000934205DC23002C001D0033000E0019004C
:1048F000A64205DC2B000D001900230034001E0029
:10490000331B9BB204934B1BDA179B18534007933E
:104910006B4610229A5ED30F9B185B100093012305
:104920008D4221DA0593B44224DC019B039A1B6873
:104930009B691F00029B934218DD22002900069B01
:104940000198B847009B079A9B1A9BB21AB2009233
:10495000002A06DA059AAD18049A2DB2D3181BB2B4
:104960000093013424B2DEE75B42DBE7069B2A00BA
:104970002100E5E709B0F0BD704710B5046824696F
:10498000A04710BD37B506AC258804680095A46B18
:10499000A04737BD37B506AC258804680095E46BA1
:1049A000A04737BD73B506AC0025655F07AC268808
:1049B000046801960095246CA04773BDF0B51600FD
:1049C00004000D0085B003930AAB1F8803685B6980
:1049D0009847039B2268013B9B191BB200930197E8
:1049E000976A2B00320029002000B8472368200076
:1049F000DB6A984705B0F0BDF0B505001C000E005D
:104A0000170085B00AAB1B88013C03930368A41907
:104A10005B69984703992A680191009723B2310096
:104A2000946A28003A00A0472B682800DB6A984760
:104A300005B0F0BDF0B50E0087B003930CAB029249
:104A400000229B5E050004930DAB1B883400059388
:104A500003685B699847039A2B68B21894420ADA94
:104A6000059A210000921F6A029A049B28000134D3
:104A7000B84724B2EFE7DB6A2800984707B0F0BDDB
:104A800013B501910E24015F0C22835E0268009130
:104A9000146C00221100A04713BDF0B504001500EE
:104AA0000E0087B004930CAB00229B5E05930DAB08
:104AB0001B88039303685B699847039A23680092F5
:104AC0005F6A2A00049B31002000B847059B0399C8
:104AD0005A1E2368009152195F6A3100049B20001E
:104AE00012B2B847039A236800921F6A2A00059BF6
:104AF00031002000B8470499039A236801390092D5
:104B0000891909B21F6A2A00059B2000B84723684B
:104B10002000DB6A984707B0F0BD7047F0B585B05C
:104B20001E000AAB0027DF5F0BAB1B8814000500DB
:104B3000029103930268B14210D1BC4202DC3B00F7
:104B400027001C00039901340091E31B966B1BB2F4
:104B50003A0002992800B04705B0F0BDBC4211D11F
:104B6000029BB34202DC3300029E0293029B039934
:104B7000013300919B1BD76B1BB222003100280030
:104B8000B847E9E753699847039A2B680192009761
:104B90009F6A2800330022000299B8472B6828003A
:104BA000DB6A9847D8E703231940431C10B5D9772F
:104BB0000822835E0A24025F012904D0032902D05F
:104BC0008381C28110BD8281C381FBE74281C281A2
:104BD000012252424261FE22002301818181012192
:104BE00010B5084C92058261C2610834421C4360D2
:104BF00004600361D377821CD177C21CD3774362F0
:104C000010BDC04680890100F0B591B01C0016AB04
:104C1000029200229B5E0D00049317AB00269E5F5C
:104C200018AB00229B5E0499039319AB1B88029A70
:104C30000993036807005B698A4265DD03998A422C
:104C400000DD7EE0029A049904922A0025001400F7
:104C5000029138009847029B039A934200D08BE060
:104C6000A54202DD2B0025001C00B54205DC231CFB
:104C7000B44200DA331C2E001CB209993A680134A0
:104C80000091A31B556A1BB2029A31003800A84755
:104C90003B683800DB6A984711B0F0BD049B0C9A62
:104CA000F31A5A43029B0492089AF31A5A43029247
:104CB000039B9E42ECDC0F99049803F09DFD059B3D
:104CC0000B99181804B2029803F096FD0C9A049BF5
:104CD0009446089A634494460493029B28186344BC
:104CE00001B202938C4202DC0B0021001C000998E7
:104CF0003A680134631A0090546A1BB232003800DB
:104D00000136A04736B2D3E7049A03998A42A0DD60
:104D1000029A03998A4223DC049A02990491039926
:104D20000392220002912C00350016008AE7380019
:104D30009847029B039A03932B00350002921E00B2
:104D40001AE0049A03998A42F1DC9847049A029B7C
:104D50000292039A039304922B0025003400EEE79D
:104D600038009847029B039A0292049A04932B00FE
:104D7000350026001C000392A3B2ADB205935B1B65
:104D80001BB26A460D936B4611891B8AB6B25A1A3A
:104D900012B20E92721B12B208926A469289511A8E
:104DA00009B20B910599D21A761A31B212B20C914E
:104DB0000F920399049A0A928A4202D0013B1BB2D5
:104DC0000A930023029E079306930A9B9E4200DDEE
:104DD00064E70E99069803F00FFD28180B9904B2AA
:104DE000079803F009FD0D9A069B9446089A6344C0
:104DF00094460693079B2818634401B207938C429C
:104E000002DC0B0021001C0009983A680134631A87
:104E10000090546A1BB2320038000136A04736B207
:104E2000D3E7F0B58DB0089312AB039200229B5EDE
:104E30000791049313AB00229B5E0400099314AB0B
:104E40001B880A9303685B6998470722049B039FAA
:104E5000D91DCB1713405B18DB10059300231D00F1
:104E600001930B92039ABBB206939B1A099A1BB249
:104E70009A422BDD0023049A93421EDA9AB20292E0
:104E80000B9A6D0099B2EDB2114204D1089A0199C2
:104E9000DB105218D55C6BB2002B0ADA079B029A22
:104EA0002000D118236809B29B693A001E000A9BB2
:104EB000B047029E013633B2DDE7059A019B944666
:104EC000069F6344013701933FB2CBE7236820007C
:104ED000DB6A98470DB0F0BDF0B51E0089B00EAB8F
:104EE000029200229B5E069103930FAB00229B5E11
:104EF0000400079303685B699847039B029F5B006C
:104F000004930196029ABBB205939B1A079A1BB2AF
:104F10009A421ADD002503992BB2226899420CDDD2
:104F200001996B00CB5A069992694919160009B28A
:104F30003A002000B0470135EDE7019A049B059F38
:104F4000D318013701933FB2DCE723682000DB6A06
:104F5000984709B0F0BDF0B58DB01D0012AB0592B9
:104F600004CB0891099200229B5E0400039314ABCA
:104F700000229B5E0A9303685B6998470722039BA4
:104F800001955B000693039B0B92D91DCB17134031
:104F90005B18DB100793059B009300231D00029311
:104FA0006B46059A1B8804939B1A0A9A1BB29A4275
:104FB0002FDD0026039A33B293421BDA0B9A6D0061
:104FC000B1B2EDB2114204D1099A0298DB10121865
:104FD000D55C6BB2002B0BDA019A7300D35A089A96
:104FE00020008918226809B292691700009AB84710
:104FF0000136DFE7069A019B9446079A634494467C
:105000000193049F029B0137634402933BB20093D8
:10501000C6E723682000DB6A98470DB0F0BD0000AA
:10502000F0B595B01D001AAB1B88040005931BABAF
:105030001E881CAB1B78089103931DAB1B78049250
:105040000293436A002B00D0C5E00C22835E8B42A2
:1050500000DC7EE00E22835E049A934279DD062313
:10506000039A53435B18002B73DD029B049ADB0009
:105070009B18002B6DDDC31CDB7F002B03D1AF2DF4
:1050800001D90135EDB2236820005B6998470523FB
:105090005D430B9300230793984B5B190F93079A7B
:1050A0000F9B9B5C0A936B469B8B09936B469B897A
:1050B0000D936B460D9A1F8C099B5343FB181BB233
:1050C0000E9308230C930023069301220A9B206869
:1050D000134252D06B461A8B198A039B012B3AD18B
:1050E000029B012B37D1099B52188569D919059B61
:1050F00012B209B22000A847069B01335BB20693A7
:105100000A9B5B080A930C9B013BDBB20C93002BC0
:10511000DBD1079B01335BB207930B9B013BDBB2F7
:105120000B93002BBBD1059BB3420ED0039B22688F
:10513000012B3FD1029B012B3CD105370096156A0C
:1051400039B20733049A2000A84723682000DB6A9D
:10515000984715B0F0BD6B460C255B5F029D6A4316
:105160008A18059912B2019169460825495F009194
:10517000C5690E992000A847BEE7059BB342BBD086
:105180006B46198B1A8A039B012B0AD1029B012BB8
:1051900007D1099B5218D91912B209B28569330097
:1051A000A8E76B460C255B5F029D01966943521888
:1051B00012B2D9E76B460C215B5E05210D98019672
:1051C000414302987918C0000090D56909B2049A49
:1051D0002000A847B9E71A7AAD1AEDB25A68ED0077
:1051E0001B68551913932B880993AB780D93EB78B3
:1051F00011930523EB560E930623EB560F93039B57
:10520000012B02D8029B012B56D96B4638229B5E9C
:105210000B936B463C229B5E0C9300272368200077
:105220005B69984707970697119B069A9A4200D3A5
:105230008BE76B461B8A00260A930C9B9B18029AED
:1052400053430A9AD3181BB210933B000D9A96420F
:105250004BD25A1CD2B212920722134207D1099B99
:105260000999139A0133525C9BB2079209936B46DA
:105270001B7F5BB2002B17DA6B46198C039B2068EF
:10528000012B1DD1029B012B1AD10A9B0F9A9A1850
:10529000069BD2180E9B12B2C918836989191D008A
:1052A00009B2059B2000A847079B01365B00DBB2D3
:1052B0000793F6B2129BC9E700230C930B93ACE75C
:1052C0006B460C229B5E0B9A039D92196A438918C8
:1052D000059A09B201926A460825525F0092C26996
:1052E00020001500109AA847DEE7069D0D9B0135AA
:1052F000FF18EBB2FFB2069396E7C0467D8401002B
:10530000F0B5466A89B004000D00002E00D073E0AD
:105310000A2914D106821223C05E04F07DF982218D
:10532000051CC905E06903F061FE011C281C03F09F
:10533000FDFB04F051F96082012009B0F0BD0D2998
:10534000FAD08369C7690593831CDB7F002B29D0C2
:105350001023C05E04F060F961490690059803F0DF
:1053600045FE011C069803F0E1FB06900C23E05E6D
:1053700004F052F9011C069803F08EFB002811D0AE
:105380001223E05E268204F047F98221061CC9053B
:10539000381C03F02BFE011C301C03F0C7FB04F08B
:1053A0001BF960821223E65E1022A35E381C06936E
:1053B00003F086FBC0B20390059803F081FBE38AFB
:1053C000C0B20193A38A3200069902900093200094
:1053D0002B00FFF725FE1023E05E04F01DF9404985
:1053E000051CA06903F002FE011C281C03F09EFBB3
:1053F00004F0F2F820829FE70A2909D100230382F2
:10540000C06904F0E9F8337B5843638AC01892E717
:105410000D2900D190E7377AB94200D28CE7B37AF0
:105420008B4200D288E7CF1B7368FFB2FF00DF1901
:10543000BB78002B4CD0FA78002A49D082690692BA
:10544000C2690592821CD27F002A28D005203856D6
:10545000C01804F0E1F8069903F0C8FD0790102386
:10546000E05E04F0D9F8011C079803F05FFB079099
:105470000C23E05E04F0D0F8011C079803F00CFB4D
:1054800000280CD01222A35E0598079300232382E4
:1054900004F0A2F8337B5843079BC01860821223A4
:1054A000E65E1022A35E0598079303F009FBC0B2E5
:1054B0000390069803F004FBE38AC0B20193A38A29
:1054C0000290009332002B0007992000FFF7A8FDFF
:1054D000A06904F081F83B795843238AC01889E712
:1054E0000000C04070B50D1C06000021281C141CD3
:1054F00003F0D2FA002801D1FE25AD05B5610021E7
:10550000201C03F0C9FA002801D1FE24A405F4618F
:1055100070BD10B50A1CFFF7E5FF10BD10B5040003
:10552000002904D1437E002B05D0022B08D900238B
:105530002160237610BD02F083FCA368C118F6E752
:1055400002F078FC6368F9E710B50400637E080098
:10555000012B0DD0002B02D0022B0ED010BD05F078
:1055600051FE074A074B05F007F820626162F5E734
:1055700005F048FE044A054BF5E705F043FEF4E765
:105580008DEDB5A0F7C6B03EFCA9F1D24D62503FFB
:1055900070B50500446802F04DFC6B7E0200002BE4
:1055A00003D00020022B07D970BDAC6802F048FC84
:1055B0002B68E41A2018F7E72868201A8018F3E708
:1055C00070B50500FFF7E4FF6C7E0600012C14D0D7
:1055D000002C03D0022C10D000200DE00022286AFD
:1055E000696A0B4B04F0C8FF03F082FA86426441FB
:1055F000E0B2002800D02E6170BD0022286A696ADE
:10560000044B04F0B9FF03F073FA0024EEE7C04640
:1056100080842E4100408F4070B505000E00FFF7DA
:10562000CFFF0400002E05D0002803D00021280061
:10563000FFF774FF30352B785842434158422040E1
:1056400070BD0000064A074B1168002904D118609C
:1056500010600023436370471A6818605063F8E7CE
:105660000009002004090020012370B500224376C0
:105670000023026243628262C362030000250E4E71
:10568000303345608560C560456105761D703378AF
:105690000400013B5A4253413370FFF755FF290084
:1056A0002000FFF73BFF3378AB4202D12000FFF729
:1056B000C9FF200070BDC04608090020F8B50400ED
:1056C0000025230045608560C560456105760F00B3
:1056D000002000210E4E303320626162A062E16240
:1056E0001D7033786276013B59424B4120003900EE
:1056F0003370FFF729FF29002000FFF70FFF3378F1
:10570000AB4202D12000FFF79DFF2000F8BDC0464C
:105710000809002030B5094D094CAB685B035B0FED
:105720009B001C590460AB6801619BB243606343FA
:10573000A4008360C460426130BDC04600400041A7
:10574000D8890100F7B580261A4D01916F6803339F
:105750003E439B086E60002B2BD0174E2E802E7D73
:10576000F107FCD51E000768991BBF088F4219D9A5
:10577000002E17D0FF2117788C433C430F495778F0
:105780000C403F023C439778013E39040C4F2740C0
:10579000D478BFB20F43240601993C4310C1019154
:1057A0000432E0E7074B2B802B7DDB07FCD5330071
:1057B000D1E7F7BD0040004144A5FFFFFF00FFFF18
:1057C000FFFF00FF04A5FFFF044B054A4908D9610C
:1057D0001A801A7DD207FCD57047C04600400041B0
:1057E00002A5FFFF70B504000D001600E368290054
:1057F0002000B34205D2FFF7E7FFE368ED18F61A81
:10580000F4E7FFF7E1FF70BD10B510001A0005F0D6
:10581000A3FE10BD70B5002950DB0C25445F8C42FF
:105820004CDD002A4ADB0E25445F944246DD042508
:1058300002265C132C405D123540DB062C43DB0F47
:10584000E318441CE47FB44223D0032C2AD0012C5B
:1058500004D1D243008980180A0001B203204843D2
:10586000302107244A43C11721400918C910521892
:105870002B49084004D5082101384942084301302A
:1058800007281BD8274902F019FF131A1F24292EB5
:10589000323E0489013C611AD443428909B212198B
:1058A00012B2DBE740890138401A110002B2D5E795
:1058B0001F24885C5B012040C3188B5470BD70248A
:1058C000885C1B01A043F7E73824885CDB00A04319
:1058D000F2E71C24885C9B00A043EDE70E24885C63
:1058E0005B00A043E8E70724885CA043E4E70324C7
:1058F000885CA0435C1000197F2488540132885CC6
:10590000DB012040D8E70124885CA0439C100019EB
:105910003F2488540132885C9B012040CCE7C0467C
:10592000070000800909002070B5040080222600CD
:105930000D001100FFF74AF9084B283608332360A1
:1059400028003570012102F019FD3078012102F0A4
:10595000E5FC02232000E36270BDC046F88A010026
:1059600070B50400C022250052012835FF210E48E1
:1059700005F00EFE2878012102F000FD0421E36A03
:105980000A4E19433000C9B2FEF7EAFE300000218A
:10599000FEF7E6FEE36A00215A4253415B00E362F0
:1059A000287802F0EBFC70BD090900207C0800207B
:1059B00070B50500036802211B6B9847094C200055
:1059C000FEF750FE20001821FEF7C2FE2000022143
:1059D000FEF7AAFE00212000FEF79CFE2800FFF73C
:1059E000BFFF70BD7C0800200300F7B5060001244E
:1059F000283301931878012102F0C0FCF16A204D90
:105A00002143C9B22800FEF7ABFEF36A21005A42D7
:105A10005341A3402800F362FEF7A2FE21002800B4
:105A2000FEF778FE2700174A631ED15C2800FEF7B8
:105A300097FE3021200002F0DFFE013086B2BE4228
:105A40000CD000212800FEF78BFE8127802E05D880
:105A50000D4B2800995DFEF783FE37000B4B013498
:105A60009C42E0D128000021FEF754FE28000021CE
:105A7000FEF776FE019B0021187802F07FFCF7BD4F
:105A80007C08002009090020F889010001180000A5
:105A900010B5024801F05DFF10BDC0460C2100208A
:105AA00013B51249124800F0D3F91249124800F018
:105AB000CFF91249124800F0CBF91249124800F010
:105AC000C7F9124C1249200000F0C2F911491248DE
:105AD00000F0BEF900230193013300930722053340
:105AE00021000E4801F0A4FE13BDC046000800428C
:105AF00048230020000C00424C23002000100042EC
:105B0000502300200014004254230020582300207A
:105B100000180042001C00425C2300200C210020E1
:105B2000F0B5C64643005F081B0E7F3B00B5051C61
:105B300006001C00162B1CDC8046002B21DB1A4FB4
:105B40001F41074211D0194902F0F0FF002102F075
:105B5000A3FF002809D0002D04DD80231B0423416E
:105B60009846A8444346BB431E00301C04BC9046E4
:105B7000F0BD0F4B9F42F8D9011C02F0D7FF061C65
:105B8000F3E70A4902F0D2FF002102F085FF002866
:105B9000EBD0002D04DB002FE7D0FE26B605E4E7AE
:105BA00080263606E1E7C046FFFF7F00CAF2497152
:105BB000FFFF7F7FF7B506000D000C008B180193E7
:105BC000019B671B9C4207D0336821781B6830001B
:105BD000984701340028F3D13800FEBD70B50400A9
:105BE00008000D0006F006FE2368020029005B682D
:105BF0002000984770BD10B50B1E02D0FFF7EEFFD6
:105C00000300180010BD10B503688A685B68096856
:105C1000984710BD10B5FFF7EEFF10BD10B5036833
:105C20001B68984710BD000010B50249FFF7D6FF6A
:105C300010BDC046F48C010070B50400FFF7DBFF17
:105C400005002000FFF7F0FF401970BD0EB430B51D
:105C500096B019AB04CB0500502102A8019307F0C0
:105C6000EDFC040002A92800FFF7C5FF200016B0D4
:105C700030BC08BC03B01847F0B58BB06B461500BC
:105C8000002205330600DA770800012D00D80A2526
:105C900009AC290002F0ACFDCAB21300373307008B
:105CA000DBB2092902D813003033DBB2013C237088
:105CB000002FEED121003000FFF79DFF0BB0F0BDAB
:105CC000F7B51E0008AB1B783100019305003300C7
:105CD0001000170005F00AFA4B49002814D10122E0
:105CE000740064085242494B3800210005F0FEF967
:105CF00000280FD10122454B52423800210002F00A
:105D000087FE002806D142492800FFF767FF0400FC
:105D10002000FEBDE0223F4B12063800310002F0A9
:105D200081FE002801D03C49EEE7E0223B4B120601
:105D30003800310002F062FE0028F4D10022002376
:105D40003800310002F05AFE041E07D02D21280031
:105D5000FFF764FF802304001B06F61800230020D1
:105D60002F490093019B009A934208D02D4B0022AB
:105D700003F0F8FF009B0133DBB20093F2E733003E
:105D80003A0003F0D3FC0F00060002F0B1FE0A2235
:105D9000019001002800FFF76FFF009B0419002B02
:105DA000B6D0019805F02EFA02000B003000390041
:105DB00004F054FE06000F0028001B49FFF70EFFF9
:105DC0002418009B013BDBB20093FF2BA0D0154BA6
:105DD00000223000390004F0CFFB0F00060002F073
:105DE00087FE0A22010001902800FFF745FF2418D2
:105DF000019805F007FA02000B003000390004F0AA
:105E00002DFE06000F00DCE7E88C0100FFFFEF7FAE
:105E1000EC8C0100FFFFEF41F08C0100FFFFEFC1B0
:105E20000000E03F000024403CFD000037B51900B1
:105E30000400069B2000DBB200930B00FFF740FF3D
:105E400005002000FFF7F0FE40193EBD100070472E
:105E5000016070479446F0B59E1E721E96416246E0
:105E6000056892072F6836063A4332432A600725B1
:105E700005AC24780068A40129402143426800242D
:105E8000022B00D05C03114321434160F0BD30B5CB
:105E9000C0250368AD031C6812052A402243C024B4
:105EA0000904A40221401143196003685A6814438D
:105EB0005C6030BD0123026811680B431360036806
:105EC0001A68D207FCD4DA69D207F9D470470223E2
:105ED000026811680B4313600268D3699B07FCD406
:105EE000704703681A7ED20702D41A7E9207FCD547
:105EF0007047002203685A8370470368187E400782
:105F0000C00F70470368187EC0097047802302687D
:105F10005B42117E0B43137670470368588B8007F2
:105F2000C00F704702230268518B0B4353837047A5
:105F30000368187EC007C00F70470368188DC0B291
:105F4000704703681A7ED207FCD589B201201985F3
:105F50007047012203689A757047012203681A7519
:105F600070470123026811680B43136003681A68C5
:105F7000D207FCD4DA69D207F9D470470223026849
:105F800011680B4313600268D3699B07FCD4704708
:105F90000368DA699207FCD402211A688A431A60FE
:105FA0007047000070B504000D00FFF7F1FF0122FB
:105FB000236815401968044AAD0711402943196048
:105FC0002000FFF7DBFF70BDFFFFFFBF70B50126AC
:105FD00004000D00F14035400E40FFF7D9FF236863
:105FE000084A19687607114031431960226806494A
:105FF00013682D070B402B4313602000FFF7BEFFF3
:1060000070BDC046FFFFFFDFFFFFFFEF0268936A2E
:106010005B0A5B021943916203681A7E5207FCD542
:10602000986AC0B27047000010B54900044802F0F9
:1060300059FB80B2002801D0013880B2C0B210BD37
:10604000006CDC0270B54B080C00012105680B40A8
:106050000C402E6824075B07234333432B60110059
:106060000468FFF7E1FF207370BD000070B50E00FB
:106070000400FFF78DFF3100064802F033FB0100FA
:106080002000FFF7D1FF256828732000FFF776FF77
:1060900070BDC046006CDC020123026811680B432E
:1060A000136003681A68D207FCD4DA69D207F9D4FE
:1060B00070470223026811680B4313600368DA69B2
:1060C0009207FCD430215A8B8A43110010220A43D4
:1060D0005A830268D3695B07FCD470478023026847
:1060E000DB02116851680B43536070470368034932
:1060F0001A685A680A405A607047C046FFFFFBFFA3
:10610000032230B5036811401C68074D5A68090422
:106110002A40E4061143640F5960052C03D102683C
:10612000D3695B07FCD430BDFFFFFCFF30B50368CB
:106130000400588B8006800F022814D05D8B00204D
:10614000AD06AD0F032D2ED0588B800705D55D8B86
:106150000020AD06AD0F012D25D100205D8BAD06D1
:10616000AD0F85421FD04800596A1043C90AC0B21A
:10617000C902014359622368002A08D11A7ED20756
:10618000FCD5588B4007C30F012058400BE0187E08
:106190008007C00FF5D11A7ED207F8D5C022596802
:1061A00092020A435A6030BD0368283319700368AD
:1061B000187EC007C00F03D15A8BD207F8D570479D
:1061C000588B4007C30F01205840F8E70368283375
:1061D0001970036800201A7E520704D5588B0123DA
:1061E0004007C00F5840704703681868C006400F4A
:1061F000043843425841C0B270470368187E4007D4
:10620000C00F70470368187EC007C00F704703684F
:10621000588BC006C00F70470368187E8007C00FF8
:1062200070470368588B0007C00F704703681A68EF
:10623000D206520F052A02D11A7E9207FCD52833C6
:106240001878C0B2704700000368104A934213D018
:106250000F4A934212D00F4A934211D00E4A9342F2
:1062600010D00E4A93420FD001200D4A4042934273
:1062700001D1063040B270470020FBE70120F9E76A
:106280000220F7E70320F5E70420F3E700080042C7
:10629000000C0042001000420014004200180042AE
:1062A000001C0042F8B5FFF7CFFF00282CDBC3002D
:1062B0001C48FF22C01805230479C3560320184048
:1062C000C0008240C021D2438140002B1DDB1F252E
:1062D00001201D40C026A840134D7600A851C026BD
:1062E0009B089B005B19B6009F593A401143995196
:1062F00028603F2323408024E4011C430B4B5C8037
:106300005A7852B2002AFBDBF8BD0F200340083B4D
:1063100007489B089B001B18D86902401143D961AC
:10632000E7E7C046F88C010000E100E0000C004007
:1063300000ED00E0F8B504000F0016001D00FFF7A7
:10634000B1FF2000FFF7B6FD1C21BB000B40710719
:106350002268090C0B431360842322689375012F74
:106360001AD11021012E00D008390C4B694318684E
:10637000C00002F0B7F90722216802408B8952035E
:10638000DB04DB0C13438B81226803049089DB0C54
:10639000400B400318439081F8BDC046A80100207F
:1063A000F7B50400019308AB0D0016001F78FFF746
:1063B000D8FD2000FFF776FFC02236059203324059
:1063C0000C261643C0222D04920215400722236892
:1063D0003543BF072F431F60019B216813401A00FC
:1063E00080239B0213434B602268D3695B07FCD474
:1063F000F7BD0000F8B504000F00FFF753FF2000C1
:10640000FFF74AFE1422236879001A600C4B2568B6
:106410001E68300002F066F90A490400300002F0FC
:1064200061F97D23FA215843C90002F05BF9FF238B
:10643000241AE868053C1C4098430443EC60F8BD0E
:10644000A801002040420F003F20704713B56B4663
:106450000268D9710733546819000122A04716BD9C
:1064600010B50221006900F00BFD034B1B680133DE
:106470005A1E9341181810BD7C01002010B503214D
:10648000006900F013FD10BD10B50321006900F094
:10649000DBFC10BD10B5054C23685A1C04D1036801
:1064A0005B69984703002060180010BD7C01002044
:1064B000074B0200186810B5411C03D0012252425C
:1064C0001A6010BD0221106900F0DAFDF9E7C0463C
:1064D0007C01002010B51300094A0400D079C0B235
:1064E000002805D1627E002A02D00123636006E005
:1064F0000A002069032100F0D1FD0028F5D010BD6D
:106500003001002010B503784222023303700249A3
:10651000024800F06FFE10BD380100207C230020EF
:1065200010B50178020043780020A12908D1212B61
:1065300005D107221649174800F05CFE012010BD66
:106540002129FCD1202B13D107221149114800F039
:10655000F1FC96220E4BD200196891420ED1012413
:10656000D87904400AD1FA2001F0B8FF0020E6E70C
:10657000222B06D19278064BDA71EAE701F0B4FFDC
:10658000F4E7232BDBD15288034B1A60D7E7C046D0
:10659000300100207C2300202C01002001234376C1
:1065A00070470000FA220021054B92009A60054ACC
:1065B000596008321A60044A19761A617047C04659
:1065C00060230020288D01007C2300207047704745
:1065D00070B50F26CB1D013902003240D5B22C0018
:1065E00000093034092A00DD07341C70013B8B425E
:1065F000F2D170BDA02110B50400490002F056F898
:10660000200010BDF8B5032908D1304B8000C058D8
:10661000002802D003689B689847F8BD822919D1E9
:10662000C3B22B4D5A01AA1891692A4C80010C4023
:10663000C021890521439161274908334018702101
:10664000506128685B011A5C8A43110030220A43BA
:106650001A54E2E70029E0D1C026C1B21C4C4B011C
:10666000E3189A681B4DB6052A4032439A601B4ACC
:10667000800182185A600A000727246808325201F4
:10668000115DB9430F000121394311559F6912492A
:106690003D4040182E439E6158617020115D81433A
:1066A000080010210143115599680D48A2180840AF
:1066B00080214903014399609968890B8903996096
:1066C000402311790B431371A7E7C04680230020B4
:1066D00034280020FFFFFF8FA8230020682500201A
:1066E000FF3F00F0EFF3108303600123436072B6B5
:1066F00070470368002B02D162B6BFF36F8F7047FB
:10670000F7B50500FC35EB690600002B18D196277C
:106710007F00C45D6846FFF7E5FF019BE4B2013BE3
:1067200002D3F45DE4B2FAE768460193FFF7E1FFB4
:10673000002C01D10020FEBDE86AAB6AC01AFAE75E
:106740006846FFF7CFFF9E220024019B5200013BC9
:1067500002D3B45CE4B2FAE768460193FFF7C9FFDD
:10676000002CE7D0E86BAB6BE8E7000030B544687D
:10677000FC3043698069DBB25A01A2189168094D67
:106780008004294000090143916091680833890B16
:106790008903916022685B01D318402219790A436A
:1067A0001A7130BDFF3F00F0F7B50500FF21FC3541
:1067B0006A6943680A401B68083252019A18D37903
:1067C0000400DB0754D50126D6716B6962680B4063
:1067D0005B01D318286A9A689204920C002822D18F
:1067E000EA62EA6A002A40D06A6B2E6268465A6002
:1067F000FFF778FF9E273E21019B7F00013BFF3181
:106800005A1C2ED096225200A654E25D581ED2B2D7
:10681000002A05D0665468460193FFF76AFFF7BD6A
:1068200062540300ECE7EA63EA6B002A1DD0002201
:106830002A626A6A68465A60FFF754FF96273E212B
:10684000019B7F00013BFF315A1C0AD09E2252005F
:10685000A654E25D581ED2B2002ADBD16254030076
:10686000F2E768460193FFF744FF2000FFF77EFF41
:1068700063681A686B69DBB208335B01D3187F2247
:10688000DA71CCE7F7B5070068463C00FFF72AFF4E
:106890000026FF22019BFC34013B0DD3E0682169F7
:1068A000884204DBE6682069961B3618F4E72669FF
:1068B000E168761A013EEFE768460193FFF719FF9A
:1068C000E3696846002B52D1FFF70CFF9621019B2C
:1068D0004900013B5A1C0CD07D5C5A1EEDB2002DC4
:1068E00005D168460193FFF704FF2800FEBD1300A1
:1068F000F0E7684601930025FFF7FBFEFF21A36A3E
:10690000B54214D0E26A9A4211D95A1CA262626A54
:10691000D3181878E36822690133C0B20B40934260
:1069200003D0E268BA181072E3600135E7E7E26A63
:106930009A42DAD10023A3620133E36168469624C8
:10694000FFF7D0FE64003E220021019BFF32013B95
:10695000581CC6D03955B85C5E1E002805D0B95405
:1069600038000193FFF702FFEDE73300F0E7FFF790
:10697000B9FE9E21019B4900013B5A1C06D07D5C5B
:106980005A1EEDB2002DACD01300F6E76846019315
:106990000025FFF7AEFEFF21A36BB54202D0E26BEC
:1069A0009A421DD8E26B9A429FD100236846A363A6
:1069B000E3619E24FFF796FE64003E220021019BC6
:1069C000FF32013B581C00D18BE73955B85C5E1E85
:1069D000002817D0B95438000193FFF7C7FEECE741
:1069E0005A1CA263626BD3181878E36822690133DA
:1069F000C0B20B40934203D0E268BA181072E36051
:106A00000135C9E73300DDE710B50400FFF73AFFB1
:106A10002300FC331969DA68914203D01B69E4183A
:106A2000207A10BD01204042FBE710B50400FC3481
:106A3000FFF728FFE0682369C01A01D50130FF3055
:106A400010BDF0B585B0019200910500FFF71AFF67
:106A500002A8FFF747FE01200024FF26039B4042C7
:106A60005A1E531C1FD02B00FC3301998C4218D2A4
:106A7000D9681F69C91B01D50131FF31002910D028
:106A80001969DF688C460100BC4506D019691F6989
:106A9000691801373740097A1F61009F3955013461
:106AA000E3E7013ADDE702A80392FFF722FE2000A8
:106AB00005B0F0BD37B56B46DC1D00230D0020008E
:106AC0002370FFF71FFD2B681818286001F094FD54
:106AD000210001F04DFD2B681818286020783EBD7C
:106AE00002220B0010B593430C00012B0BD10D4B70
:106AF00008341B6864011C19802321795B420B4315
:106B00002371E27110BD01F077FD210001F064FDF9
:106B10000028F7D0034B08341B6864011C197F233D
:106B2000E371EFE73428002070B50024374B0121D2
:106B300005000B201C7001F0F1FB01210B2001F07E
:106B40001DFC334B01210C201C7001F0E7FB0121DF
:106B50000C2001F013FC20232E4A0F20D1690B4397
:106B6000D36101222C490B7813430B702B4B1978FE
:106B70008143197006211C782143197028490C782B
:106B800022430A701A7802401A70602219780A4368
:106B90001A70244B244A5A805A78D209FCD12348CF
:106BA00001F042F9224C7F26200001F037FD200041
:106BB00001F04CFD0C2108232068C2788A4313435E
:106BC0000322C3702068C3789343013A1343C37010
:106BD0002068037833400370042320680678334329
:106BE0000370206803898B430381C1201149800011
:106BF0000B581B021B0A0B5080230B60236819786B
:106C00000A431A7001232B7070BDC0469D230020DB
:106C10009C23002000040040584400413C440041B3
:106C200059440041000C0040064000006576000019
:106C30003428002000E100E00078002810D0012175
:106C4000084B1B681A898A431A810822198B0A4348
:106C50001A830422198B0A431A830022024B1A60FA
:106C60007047C046342800202C28002010B50F4A59
:106C700093699B0B9B03936113680222FF331A7283
:106C80009879823A02439A711A7A9207FCD57F2446
:106C9000074A2140937A0800A34319008023014347
:106CA0009172917A5B420B43937210BD342800209D
:106CB0000050004110B50B790C00002B0CD10800DE
:106CC000FFF72EFC002801D0012010BD094A93696E
:106CD0009B0B9B039361F7E701F08EFC210001F011
:106CE0006BFC0028F0D1034A93699B0B9B039361D3
:106CF000EBE7C04634280020F8B50D00832A19D1EF
:106D0000CBB2434C5A01A21891694248AD010840E8
:106D1000C0218905014391613F4920686D187021A8
:106D2000083355615B011A5C8A43110040220A4313
:106D30001A54F8BD022A65D1384B8A00D058002871
:106D400002D003689B699847A020400001F0FAF840
:106D500080270600324B7F0003602D4B00214360EB
:106D60003A00083004F014FC340096220023FC346E
:106D70005200E360A36223616561E361A76123625E
:106D8000E362B3541032A363E363B3543E2238008A
:106D9000FF32B35404F0BAFB6062380004F0B6FB73
:106DA0002B006063FF201A4903405A018A1891683A
:106DB000184F08330F40C0218905394307279160D8
:106DC000134A5B011168AD005A5CBA4317000322F5
:106DD0003A435A5461697368014049015918636A1A
:106DE0004B60736862691B68024052019B18012264
:106DF0001B18997A30000A439A72FFF7B7FC074BC9
:106E0000EE5096E711002800FFF7FCFB91E7C04623
:106E100034280020FFFFFF8FA823002080230020BC
:106E2000588D010070B505000124064BA200D25810
:106E3000002A06D0210028000134FFF75DFF0A2C4C
:106E4000F3D170BD800100200B4BCAB20B48890101
:106E5000C9185301C318596199690832890B89030C
:106E60009961036852019A180223D3715179823BC8
:106E70000B4353717047C046A823002034280020DC
:106E8000084B8A00D05810B5002803D00368DB688F
:106E9000984710BDC9B2044B49015918886880044D
:106EA000800CF6E7802300203428002010B50C0069
:106EB000FFF7E6FF00280CD0064BE4B21B6808344D
:106EC00064011C19802362795B42134363710223BE
:106ED000E37110BD3428002070B5CBB2124A1348BC
:106EE0005C0189018918021951609168104D0833BD
:106EF0000D40802189022943402591609168890BCA
:106F00008903916001685A018A1816793543157111
:106F100095796D06FCD55B01C918CB79DB07FCD5EB
:106F200000198068C0B270BD682500203428002098
:106F3000FF3F00F070B5140040220B4B0D001B68A2
:106F4000FF3359790A435A710021FFF7C5FFA04268
:106F500000D9200000230549A34203D0CA5CEA54AB
:106F60000133F9E770BDC0463428002068250020B1
:106F700010B5C9B20B484901421893689B049B0C99
:106F80003F2B0BD99468403B9B04A40B9B0CA403A0
:106F90002343936041188868C0B210BD93689B0B6F
:106FA0009B03F6E734280020F0B51C002F4B85B07A
:106FB0001B6806000D000192002B54D02C4F39782D
:106FC000C9B2002902D10C2001F0D8F964233B702A
:106FD000284BAA00D058002808D0036822005B681C
:106FE000019998470400200005B0F0BD2900300049
:106FF000FFF746FF844204D929003000FFF740FF25
:10700000040029003000FFF7B3FF0121EBB21A4F53
:1070100003935B010293029A3B6801989B18FF332C
:107020005A7A0A435A72154BA901C918220004F072
:1070300093FA002CD7D029003000FFF721FF002859
:10704000D1D14021039B3A6808335B01D3181879EA
:10705000014319710121D971029BD318FF339A7A28
:107060000A439A72BFE701246442BCE72C2800203F
:107070009C23002080230020342800206825002045
:1070800013B56B46DC1D22000123FFF78DFF01289D
:1070900001D1207816BD01204042FBE7F0B51E006B
:1070A0003A4B85B01B680F000192002B3FD0802324
:1070B000DB019E423BD8364C2178C9B2002902D16F
:1070C0000B2001F05BF9642300252370314BBA01DA
:1070D000D3180293002E2CD02F4B1B680393FF2351
:1070E0003B401C0000930834039B64011C19A379E6
:1070F000DB0921D0294B2A49186801F0F3FA294B02
:107100001721584301F0EEFA274BE279920713D486
:10711000DA5D002A01D10138F7D20122DA55009B4D
:107120005A011D4B9B189A69920B92039A61012593
:107130006D42280005B0F0BD00221B4B3400DA552B
:10714000402E00D9402422000199029804F004FA4C
:10715000009BA1045A01104B890C9B18029A2D190F
:107160005A619A69361B920B92030A439A61009BFB
:10717000039A08335B01D3180222DA715979823AF3
:107180000A435A71019B1B190193A3E72C28002085
:107190009D230020A823002034280020A8010020DF
:1071A00040420F00701101009F23002070B50D00B8
:1071B0001C000D4BAE01F61811003000220004F047
:1071C000CBF9EDB209496D014D196E61AB69084A01
:1071D00020001340AB61AB69A2049B0B920C9B0394
:1071E0001343AB6170BDC046A823002034280020A3
:1071F000FF3F00F0F7B5104B01901B780F00150012
:10720000002B0CD10D4B16001C78002C09D00C4E15
:107210000C4834882018641904F09EF93480280042
:10722000FEBD002EFBD03A19330000210198FFF774
:10723000BDFF2418361AF4E728270020292800204B
:107240002A28002029270020F8B5002000AF0E00D2
:107250001500012A27D9D31D6A46DB08DB00D31AA3
:107260009D46080005F0C6FA6C4603230222002161
:107270000130400020706370AA420DD2307800289F
:107280000AD0531CDBB20136A0549D4203D0023217
:10729000E154D2B2F0E72A0021000448FFF7AAFF28
:1072A000431E9841C0B2BD46F8BDC0467C230020B5
:1072B000F0B50024012685B0184B0F0069461E70FA
:1072C00005000094FFF7F6FB154B01A90B806A3B04
:1072D000FF3BCB716E3B0B72009B8C7109334B8073
:1072E0000E4B4E7108711C703A00092F0FD00D4FD4
:1072F00009223E700C4E280000943480FFF77AFF7C
:1073000069462800FFF7D6FB328808493C70280000
:10731000FFF770FF012005B0F0BDC0462827002010
:1073200009020000292800202A28002029270020FF
:10733000F0B5CF7893B005000E00022F09D1C988AF
:107340002D48FFF7B5FF441EA041C4B2200013B082
:10735000F0BD01F051F9310001F01EF9002803D011
:10736000C417241AE40FF1E7012F0FD1F288082A7D
:107370000AD02249112A13D8D2B2002A10D02800EC
:10738000FFF738FF0124E1E71D49F5E70400032F6B
:10739000DCD1B378002B05D1F2881A49032AEBD946
:1073A0000A78ECE7022B06D1B27917492800FFF7DB
:1073B0004BFF0400CAE7012B02D1B2791349F5E76C
:1073C000032BC3D1124B01A91868FFF701F9114B28
:1073D00003A91868FFF7FCF80F4B05A91868FFF719
:1073E000F7F80E4B07A91868FFF7F2F86B4605335C
:1073F000DC77B27901A9D9E77C230020908D0100C8
:10740000A28D0100868D0100788D01008A8D01001A
:107410000CA0800040A0800044A0800048A0800014
:1074200037B5040048780D000B2810D801F046F954
:10743000061B0F2B0F40456D494C6669097801AA60
:10744000002906D1022311802000FFF7AFFE0120A2
:107450003EBD002313802E4B1B78012B00D11370EF
:1074600002230021F0E78A780023012A03D101AA30
:107470001380284BF0E7264A1370274A93699B0B29
:107480009B039361E3E78D78012D06D10021214B09
:1074900001AA1D7011702B00D6E70120002DD7D155
:1074A0001B4B1D4A187093699B0B9B039361CFE79D
:1074B00089782000FFF7DAFBC9E72000FFF738FFE3
:1074C000C6E70123154ACCE70B780020DB06BFD1C5
:1074D0002000FFF7A7FC2A20AA78104BFF301A6083
:1074E00002230D4A11680C5C23434A240B54FF34D9
:1074F0000B5D2938FF3803430B55D4E70123084AB5
:10750000AFE78A78064B1A60B7E70020A0E7C046CD
:107510009E230020A6230020342800202C280020B1
:1075200030280020474BF7B51C780600002C7CD192
:10753000454D2B689B8B1B070ED521002000FFF7C4
:1075400061F82A6810231100FF31887A03438B7297
:107550003E4B1C60082393832B689A8B52071FD5E0
:1075600004229A833A4A1378002B0AD01378013BFD
:10757000DBB213701378002B03D101210B2000F034
:10758000FDFE344A1378002B0AD01378013BDBB29E
:1075900013701378002B03D101210C2000F0EEFEB4
:1075A0002B68FF331A7AD2061ED510221A72597927
:1075B00030320A435A716023274930000A781A4250
:1075C00034D1FFF72DFF2B68FF33002831D0802204
:1075D000997952420A439A711A7A520604D5402286
:1075E0001A72597A0A435A72012427002B681B8C9D
:1075F000A343DBB20193019B23413B4212D0230002
:107600002A6808335B01D318DA79D20702D4DB7910
:107610009B0707D5114BA200D05800280DD0036856
:107620001B6898470134082CE5D1F7BDFFF742FBF2
:10763000C9E720210A4A9171CEE7E1B23000FFF795
:107640004FFAEFE729280020342800202C280020BA
:107650009D2300209C2300206825002080230020FB
:10766000FF50004110B50248FFF75CFF10BDC04657
:107670007C230020014B024A1A6070473428002006
:10768000005000410120704710B50368014A1B6A91
:10769000984710BD130400000300FC33D9699A69B0
:1076A000914203D0DB69C018007D70470120404241
:1076B000FBE710B504000069FEF7FCFB2200002385
:1076C000FC329361D36186229200A4186360A360A8
:1076D00010BDF02001403039484248417047F02346
:1076E0001B011940802306209B0099420AD00133D8
:1076F000FF330130994205D0802302385B00994264
:1077000000D0002070470F2001400020012903D045
:107710000239481E8141481C704700008923F0B59A
:10772000182685B002919B000400C05C330008213C
:107730004343324D1700EB18595600F06DFE304BA5
:107740000821E05C33004343EB18595600F064FE17
:107750002C4BE25C0393022A09D11133E05CFF2831
:1077600005D008214643AE19715600F055FE8A2611
:10777000B600A05DFF2819D0012100F0CFFD18222E
:10778000A35D21495A43AB56AD18DB0158188B2134
:10779000890060501D4901225B188C2189006350CB
:1077A00069688A408D21890062501A600122029B1B
:1077B00011002069FEF7BEFD39002000FFF78FFFA2
:1077C000390005002000FFF79EFF39000600200069
:1077D000FFF77FFF33000090290020690122FEF7A8
:1077E00039FB0B4B2069E25C039BE15CFEF74FFB2E
:1077F0002069FEF76CFB05B0F0BDC046508B010060
:1078000025020000270200001844004114440041F2
:1078100026020000802210B504005200002103F06F
:10782000B7FE23000022FC335A6020009A6010BD8E
:10783000F7B51D0008AB1B780400009309AB1B785B
:107840001600019300234360FA239B008360114BD1
:107850000F00083303601430FFF7DCFF20001D30F9
:10786000FF30FFF7D7FF89236A469B002761E65464
:10787000094B1278E554094B2000E2546A46084B44
:107880001279E2548A22293BFF3B9200A354103222
:10789000A354FEBDB48D01002502000026020000A5
:1078A000270200000300FC3359689A68914204DB08
:1078B0005A689868801AFF30704798685B68C01AE9
:1078C0000138F9E710B51D30FF30FFF7EBFF10BDB1
:1078D000030070B5FC33D9699A69040091421AD04B
:1078E000DA698218157DDA690132D2B2DA618A2347
:1078F0009B00E35CFF2B0CD020001430FFF7D2FF7D
:107900000A2806DD8C238D229B009200E358A258A2
:107910001A60280070BD01256D42E8E70300FC33C2
:1079200058689B68C01A01D50130FF30704710B508
:10793000040020001D30FF30FFF7F0FF0028F8D1D1
:107940002069FEF7CEFA10BD10B51430FFF7E6FF40
:1079500010BD10B504000069FEF7DFFA002805D05D
:107960002069FEF7EAFA2069FEF7DCFA2069FEF7E3
:10797000C4FA002820D02069FEF7DFFA2200FC328A
:107980009369D1690133DBB28B4203D091696118ED
:10799000087593618A239B00E35CFF2B0CD02000C9
:1079A0001430FFF77FFF092806DC8B238D229B0014
:1079B0009200E358A2581A602069FEF7B9FA00282D
:1079C0001AD020001D30FF30FFF7A8FF002822D07A
:1079D00086239B00E31899685A68914218D08E213B
:1079E0009A684900A218515C9A680132D2B29A6032
:1079F000C9B22069FEF7A5FA2069FEF783FA0028CC
:107A000005D02069FEF782FA2069FEF772FA10BDF0
:107A100001214942ECE72069FEF79FFAECE70000FC
:107A200070B5040000690D00FEF782FA00283ED10F
:107A3000FF2686239B00E3185A689968013232407A
:107A40008A4223D1EFF31083DB070DD41E4B5B6812
:107A5000DB05DB0DEDD0103B5BB2002B0DDB9B0893
:107A6000C0331A4A9B009B582069FEF761FA002830
:107A7000DFD02000FFF76DFFDBE70F221340083B4C
:107A80009B08134A9B009B181B68EDE75A6801325C
:107A900016409A68964205D08E215A684900A2186D
:107AA00055545E602069FEF754FA012070BD200035
:107AB0001D30FF30FFF732FF0028B9D129002069BF
:107AC000FEF73FFAF1E7C04600ED00E000E100E01C
:107AD0001CED00E0F7B50092182216254243514BE9
