:10200000008000206D7C00002D7B0000557C0000CE
:1020100000000000000000000000000000000000C0
:10202000000000000000000000000000557C0000DF
:102030000000000000000000557C0000C17C000092
:10204000557C0000557C0000557C0000557C00004C
:10205000F57A0000557C0000AD470000597C000077
:10206000557C0000557C0000557C0000C5440000F4
:10207000557C0000E5580000557C0000557C0000B0
:10208000557C0000557C0000557C0000557C00000C
:1020900000000000557C0000557C0000557C0000CD
:1020A000557C0000557C0000557C0000557C0000EC
:1020B0000000000010B5064C2378002B07D1054B1B
:1020C000002B02D0044800E000BF0123237010BDA4
:1020D000A803002000000000D48D0100044B10B5BF
:1020E000002B03D00349044800E000BF10BDC046E8
:1020F00000000000AC030020D48D010007B5044BA4
:10210000002200930321034B034801F013FC07BD99
:102110002805002000040020D804002010B50A4C37
:102120000121200003F01AFA011E02D0FFF7E6FF9A
:1021300010BD200003F094F9044B054A0221054824
:1021400001F0D0FCF4E7C046C803002028050020B9
:1021500000040020D804002070B50A4D0121280099
:1021600003F0FCF9041E02D0FFF7C8FF70BD0100A8
:10217000280003F075F9044B044A2100044801F0DB
:10218000B1FCF3E7C803002028050020000400206C
:10219000D804002010B50A4C0121200003F0DEF91C
:1021A000011E02D0FFF7AAFF10BD200003F058F96E
:1021B000044B054A0121054801F094FCF4E7C046B0
:1021C000C80300202805002000040020D8040020B7
:1021D00073B5E121374D4902280004F033F9364840
:1021E00005F0B2FD3549280003F050FC344E3000B4
:1021F00002F004F80A2005F0A7FD324C6B213200F2
:10220000200001F0F3FE3049002804D12F492800B6
:1022100003F03CFC2E49280003F038FC8022012109
:10222000200001F082FE40221721200001F07DFEF7
:1022300011220221200001F078FE832208212000D3
:1022400001F073FE05220921200001F06EFE00223C
:102250001721200001F069FE08220421200001F06E
:1022600064FE10220521200001F05FFE08220A21F1
:10227000200001F05AFE6B46DD1D2900642220007B
:1022800001F0F5FD80232A7864211A43200001F033
:102290004CFE00220121200001F047FE02225E21B7
:1022A000200001F042FE48221021200001F03DFEF6
:1022B00073BDC0461C230020C4090000D1FB0000F0
:1022C0000406002068040020D9FB0000E0FB0000A9
:1022D000FAFB0000F0B5364C85B03649200003F01B
:1022E000C3FB3549200003F0BFFB344D0326280013
:1022F00001F00EFF08F00CFF009602000B0020001A
:1023000003F0E8FC2E49200003F0AEFB280001F0AA
:1023100008FF08F0FDFE009602000B00200003F00D
:10232000D9FC2849200003F09FFB280001F002FFA0
:1023300008F0EEFE0E2702000B000096200003F0CE
:10234000C9FC2149200003F08FFB204E204B3100B7
:102350001A685B68200003F0A3FB1E49200003F00D
:1023600083FB6F4480220121280001F0DEFD39004B
:102370006222280001F0CFFD00220121280001F097
:10238000D4FD0023FA5E3100200003F089FB092010
:1023900005F074FF31000200200003F081FB03F020
:1023A0005BF90A220100200003F0D3FB05B0F0BD69
:1023B0001C23002094FB0000A5FB00006804002003
:1023C000ABFB0000B1FB0000B7FB00007543010050
:1023D00028050020C0FB000037B50121154803F097
:1023E000BDF8154C00280FD00123144D14492A685C
:1023F00020005340134A2B6000F0BEFA29680D20DC
:1024000005F010FFFFF766FF216801290CD10E4887
:1024100003F0A4F8002807D00A4B002200930421FF
:10242000074B200001F086FA0021084803F096F8D7
:1024300037BDC046A0040020D804002000000020C2
:10244000000400202805002030040020C8030020DC
:1024500010B5124801F0A2FD0621114803F08EF9D3
:10246000FA211048490003F0A1F802210E4803F0B8
:102470009DF80E4C02221E21200003F0C1F802221A
:102480003C210B4803F0BCF800210A4801F038FC5D
:102490002100094800F056F810BDC046680400202D
:1024A00000040020A0040020B0050020300400201B
:1024B000C803002028050020D804002013B50121FE
:1024C0000D2005F07FFE0121062005F07BFE022194
:1024D000032005F077FE0221080005F073FE0221BB
:1024E000012005F06FFE03221049022005F046FA94
:1024F00003220F49100005F041FA03220D49012083
:1025000005F03CFAFFF764FE0B4C200003F07AF96B
:102510002000012102F0E9FA084B00220093032178
:102520002300074801F006FA13BDC04659210000F8
:102530001D21000095210000000400202805002036
:10254000D804002070B50D00010000230200040033
:102550004B310360436003810B320B701370537077
:102560009370D370137153719371D3710832914288
:10257000F4D1032005F0C4FD05F0E8FA402005F091
:10258000EBFAA072E564200070BD0000F0B5060013
:1025900091B0169C0B9323680E921B6B0D002000CC
:1025A00001219847179801F0EBFB727A317A531E9C
:1025B0009A41D2B201F082FB0B9B0D905A1E9341BF
:1025C00001330A935B0804931023079300230693B7
:1025D000049B5D19ABB20F93069B1B01DBB2089302
:1025E0001033DBB20C936B461B8D0993099A069B43
:1025F00053430E9A9B189BB21AB20392049A9B18EB
:102600001BB205930F9B019300230293284B029961
:102610001A68089B5B18DBB2013202D10C9B5B1A73
:10262000DBB20D9A5B00D3180093224A1B889342B9
:1026300025D0019A04992000561A226836B21569ED
:102640003100039AA8476B46226804255D5F009B12
:1026500017692900039A20001B88B8472268009B4D
:1026600017693100059A20001B88B8472268009B33
:1026700016691B88059A29002000B04702E00B9AD2
:10268000002AD6D1099A029B944601330293019BFA
:1026900063449BB20193029B102BB7D1069B01337D
:1026A0000693079B013B0793002B95D111B0F0BD1A
:1026B00034000020FFFF0000F0B591B0169C0C9391
:1026C00023680D000E921B6B0121200098470C9B84
:1026D0005A1E934101330B935B0805931023089313
:1026E00000230793059B5D19ABB20F93079B1B015A
:1026F000DBB209931033DBB20D936B469B8D0A93CB
:102700000A9A079B53430E9A9B189BB21AB20492E3
:10271000059A9B181BB206930F9B02930023039309
:10272000284B03991A68099B5B18DBB2013202D16E
:102730000D9B5B1ADBB2244A5B009B180193234A72
:102740001B88934225D0029A05992000561A2268C8
:1027500036B215693100049AA8476B4622680825ED
:102760005D5F019B17692900049A20001B88B84708
:102770002268019B17693100069A20001B88B84720
:102780002268019B16691B88069A29002000B04721
:1027900002E00C9A002AD6D10A9A039B9446013390
:1027A0000393029B63449BB20293039B102BB7D10C
:1027B000079B01330793089B013B0893002B95D19E
:1027C00011B0F0BD34000020242C0100FFFF0000F8
:1027D000F0B50C000B688BB0059207001B6B012154
:1027E00020009847059801F0CBFA060023680021E5
:1027F0005B6C20009847300001F046FA7A7A397A0B
:10280000531E9A410500D2B2300001F057FA414BF5
:1028100000220293802311000193009320003E4B7D
:1028200002F0A1FA059B302201930A21012338000E
:102830000094FFF7ABFE394907A805F0E0F93078BE
:10284000042808D805F08EFE0363615D5F003449FB
:1028500007A805F0F3F9FE212000890502F0FBFD31
:102860000122E31CDA772F4B07A923612E4B2000AE
:10287000636103F0F2F823686A881B680C21002A60
:1028800000D10B2120009847284B200023612849C4
:1028900002F0E1FD2A882749200003F001F9264BC8
:1028A00026492361AA88200003F0FAF8244B254921
:1028B0002361EA88200003F0F3F8234B23492361C6
:1028C0002A89200003F0ECF8214B224923616A8910
:1028D000200003F0E5F8204B20492361AA8920005D
:1028E00003F0DEF81E4B1F492361EA89200003F044
:1028F000D7F8200002F0A2FF07A805F038F90BB0C6
:10290000F0BD1949A4E71949A2E71949A0E71949F7
:102910009EE7C046FFFF000044320100DA88010054
:1029200004430100230008000000FFFF3C001C00DE
:102930000000A03F214301003C0028002C4301007F
:102940003C003400364301003C004000404301009D
:102950003C004C004A4301003C006200544301002B
:102960003C006E005E430100004301000A43010089
:10297000114301001A430100F0B50C0005000B687B
:1029800085B01B6B03920121200098472B68012B17
:1029900012D0022B0ED16A7A013B5A406A72039A16
:1029A0000A210192302200942800FFF7EFFD200059
:1029B00002F044FF05B0F0BD6A7A154E154F686805
:1029C00053406B7231683A68042810D81023120102
:1029D000090112B209B20193009305F0C3FD03117E
:1029E000131517000C4B1B68200002F017FA3A6809
:1029F0003168039B12010193090100940023D3E77E
:102A0000064BF0E7064BEEE7064BECE7064BEAE732
:102A1000EC050020F0050020240000203C000020F0
:102A20006C000020840000204C000020F0B51368EA
:102A30000D0085B01B6B0121100014009847032D79
:102A40002FD0042D54D0022D29D10123102602931A
:102A50000322236802991B6B114020009847374FCF
:102A6000019600963B6900227021200002F0D6F901
:102A700010252AB20196009610357B69702120003E
:102A8000ADB202F0CBF9702DF3D1029B013302936A
:102A9000052BDDD1236801211B6B2000984705B071
:102AA000F0BD0123102602930395039A236802992F
:102AB0001B6B114020009847214F019600963B69FF
:102AC00000227021200002F0A9F910252AB20196F7
:102AD000009610357B6970212000ADB202F09EF99E
:102AE000702DF3D1029B01330293052BDDD1D1E789
:102AF0000123102602930322236802991B6B1140C5
:102B0000200098470F4F019600963B6900227021E4
:102B1000200002F083F910252AB2019600961035A4
:102B20007B6970212000ADB202F078F9702DF3D1ED
:102B3000029B01330293052BDDD1ABE76C00002033
:102B4000840000204C000020F0B58BB00593136882
:102B50000D0004901B6B0121100014009847042DF8
:102B60004FD8280005F008FD05006600C3002701C6
:102B70009801049B10250893002306936B461827A1
:102B8000DF5F00230793079A089B9B18DA7A079B5D
:102B90001B0109936B4624269E5FB94B0195009556
:102BA000002A06D11B6832003900200002F036F9F5
:102BB00019E0012A01D15B68F5E7022A01D19B687F
:102BC000F1E7042A22D11B6832003900200002F00C
:102BD00025F9AC4B029500930195AB4B32003900BF
:102BE000200002F05AF9079B01330793082BCAD142
:102BF000069B10330693089B08330893069B802B93
:102C0000BCD1200002F01AFE0BB0F0BD052A0FD196
:102C10003200390020001B6802F000F9059B009487
:102C20000193099A002306990498FFF7AFFCDAE7AD
:102C3000DB68B8E7049B10250893002306936B46D6
:102C40001827DF5F00230793079A089B9B18DA7AFF
:102C5000079B1B0109936B4624269E5F8B4B0195B6
:102C60000095002A06D11B6832003900200002F0CE
:102C7000D5F819E0012A01D15B68F5E7022A01D1F4
:102C80009B68F1E7042A1ED11B683200390020003E
:102C900002F0C4F87B4B0295009301957A4B320009
:102CA0003900200002F0F9F8079B01330793082B45
:102CB000CAD1069B10330693089B08330893069BE2
:102CC000802BBCD19DE7052A0FD1320039002000AE
:102CD0001B6802F0A3F8059B00940193099A002356
:102CE00006990498FFF752FCDEE7DB68BCE7059B1A
:102CF000220002210498FFF799FE049B08330893F1
:102D000010231D0006936B461827DF5F01230793EE
:102D1000079A089B9B18DA7A079B1B0109936B465D
:102D200024269E5F5A4B01950095002A06D11B6808
:102D300032003900200002F071F819E0012A01D1B7
:102D40005B68F5E7022A01D19B68F1E7042A1ED1EE
:102D50001B6832003900200002F060F8494B0295F0
:102D600000930195484B32003900200002F095F89D
:102D7000079B01330793072BCAD1069B1033069399
:102D8000089B08330893069B702BBCD139E7052AB2
:102D90000FD13200390020001B6802F03FF8059B7C
:102DA00000940193099A002306990498FFF7EEFB1B
:102DB000DEE7DB68BCE7059B220003210498FFF7F0
:102DC00035FE049B0833089310231D0006936B46C1
:102DD0001827DF5F01230793079A089B9B18DA7A6D
:102DE000079B1B0109936B4624269E5F294B019587
:102DF0000095002A06D11B6832003900200002F03D
:102E00000DF819E0012A01D15B68F5E7022A01D12A
:102E10009B68F1E7042A1ED11B68320039002000AC
:102E200001F0FCFF174B029500930195164B320001
:102E30003900200002F031F8079B01330793072B7C
:102E4000CAD1069B10330693089B08330893069B50
:102E5000702BBCD1D5E6052A0FD1320039002000F5
:102E60001B6801F0DBFF059B00940193099A002386
:102E700006990498FFF78AFBDEE7DB68BCE7C046EB
:102E80002400002024320100242C01003C000020FA
:102E90006C00002084000020059B2200042104987F
:102EA000FFF7C4FD049B0833089310231D0006930D
:102EB0006B461827DF5F01230793079A089B9B182F
:102EC000DA7A079B1B0109936B4624269E5F244BED
:102ED00001950095002A06D11B68320039002000B8
:102EE00001F09CFF19E0012A01D15B68F5E7022A95
:102EF00001D19B68F1E7042A1ED11B68320039001A
:102F0000200001F08BFF174B029500930195164BA3
:102F100032003900200001F0C0FF079B0133079306
:102F2000072BCAD1069B10330693089B08330893DE
:102F3000069B702BBCD164E6052A0FD13200390004
:102F400020001B6801F06AFF059B00940193099A19
:102F5000002306990498FFF719FBDEE7DB68BCE75E
:102F60004C00002024320100242C01000020072AFC
:102F700006D8072B04D8D200C9188B5C0130584002
:102F800070470000F0B50D000B68040087B01B6BA4
:102F9000012128009847402004F0DEFD0723C117D7
:102FA00019400918274FCB1006000493074004D599
:102FB0000823013F5B421F430137049BDB0005935D
:102FC000E318DB19D87A0028E5D10723A27AD108C3
:102FD0001A40CB00E3189B18D8726068042810D8F8
:102FE00010231201090112B209B20193009305F0F6
:102FF000B9FA032123252700134B1B68280001F091
:103000000DFF059BA672E4180423E419E372049BE8
:103010003A0119011023029301930C4B12B209B229
:10302000009328000A4B01F038FF280002F006FC4C
:1030300007B0F0BD074BE0E7074BDEE7074BDCE7E7
:10304000074BDAE70700008024000020243201004B
:10305000242C01003C0000206C0000208400002093
:103060004C00002070B504000826402004F074FDD8
:1030700007257642C3172B400B4A1B18DB10024072
:1030800002D5013A32430132DB00E3189B181A00E3
:10309000DB7A0B32002B03D0402004F05DFDE9E722
:1030A0000423A072137070BD07000080F0B585B0D6
:1030B000040002920393012908D0002926D0022996
:1030C00016D0029802F0BAFB05B0F0BD434B444D58
:1030D00019685A6848422A6068601A605860002A75
:1030E00002D001232372ECE74B1C0DD10223F9E738
:1030F0003A4B3B4D59681A68484228606A6005C3DC
:103100000029EED1012AF1D00023EBE7354E334DF3
:1031100031682B68CB18072BD3D8334F68683A68CF
:10312000101A0728CDD8DB00E3181B18DB7A002B18
:103130000ED16068042824D81201090112B21023AC
:1031400009B20193009305F00DFA1741434547007A
:10315000042BB6D1254A200013780299013313704D
:10316000039AFFF70FFF606804280AD83A683168AD
:10317000120112B20901E2E71D4B1B68029801F02F
:103180004DFE194E6A683368164F9A1A39682B68D3
:1031900012015918039B09010193029B200000931F
:1031A0000023FFF7F3F900203B683268D90061186B
:1031B0008918C87229685B1869683B60DB00521A7D
:1031C000E3189B1832600522DA727AE7094BD4E7DC
:1031D000094BD2E7094BD0E7094BCEE7340000207A
:1031E00064000020EC050020F0050020E805002028
:1031F000240000203C0000206C00002084000020FF
:103200004C000020F0B50C000B6887B00700059259
:103210001B6B012120009847002580230295019314
:1032200000932A00384B2900200001F09CFD7E68A5
:10323000012E4DD0022E30D0AE4219D120233022A3
:103240000193110000932000304B029601F08BFD9A
:10325000059B382201933100330038000094FFF7BA
:1032600095F900943300382270213800FFF724FAD2
:10327000274B80212361002320006361C90502F0F0
:10328000EAF8059B23491A685B68200002F008FCF5
:10329000200002F0D3FA07B0F0BD3022059B1100E8
:1032A0000193380000940123FFF770F92B002900E7
:1032B000380000943822FFF7FFF91023029501939C
:1032C00000933822144B7021200001F04CFDCFE711
:1032D00030223300110038000094FFF7EDF910237D
:1032E000290001930093200002950B4B382201F036
:1032F0003AFD059B0094019338222B007021380081
:10330000FFF744F9B4E7C046443A010044420100E3
:103310000200020075430100C442010070B50C00B8
:103320000B6820001B6B0121160098471E4D2B785F
:103330000E2B35D903233372FF211C4B2000236150
:10334000890502F088F81A49200002F09FFB8021CD
:10335000184B20002361C90502F07DF82A78164930
:10336000200002F09DFBFE21144B20002361890503
:1033700002F071F8327A1249200002F091FB00232A
:103380000121104A2000136051600F4A2B70136016
:1033900051600E4A13600E4A136002F04FFA70BD7E
:1033A000092BC9D90223C6E7E80500201100200037
:1033B000E442010036002B002743010016004800BC
:1033C000F04201003400002064000020EC050020E1
:1033D000F0050020F0B50C000B6887B005901B6B62
:1033E0000121200016009847FF2110254B4B89052D
:1033F0002361200002F02FF83268736848492000EA
:1034000002F04EFB474B48492361327A200002F01C
:1034100047FB464B019500951B6848220821200078
:1034200001F0FCFC424B019500955B68482220218D
:10343000200001F0F3FC3F4B019500955B694822A9
:103440003821200001F0EAFC3B4B019500955B69B7
:1034500048225021200001F0E1FC384B01950095F5
:103460005B6948226821200001F0D8FC0A3500225F
:103470002368009229B21835DF6B503204232000F4
:10348000ADB2B8477A2DF2D11027767A623D7543F6
:103490000835042E0DDC002329B202930197009712
:1034A000274B48222000183501F05DFC0136ADB2F3
:1034B000EFE700221825059F5C264B37BA560020FF
:1034C0006A4392B2130011001032029612B2033610
:1034D00012330D3103900192200032001BB209B269
:1034E000009601F033FB0023FB5600205D43ADB294
:1034F0002B0029005C220F352DB212330D311BB287
:1035000009B203900292200032000195009601F06A
:103510001DFB200002F092F907B0F0BD040004008A
:1035200068430100040024007943010024000020C6
:103530003C0000206C000020840000204C00002093
:1035400004060100036870B50400002B0BD0436A29
:1035500045691E1DAE4203D901CD04F04BFCF9E7CD
:10356000206804F047FC200070BD0000F7B5026A37
:103570008369083A04000191934207D0002B02D0DE
:103580001A0021C921C20833A361F7BD436A02684A
:103590004668991A8910711A012922D841695D1A61
:1035A000AD106F1C7D1C6800864238D9751B6D08F4
:1035B000AD00551904335A1AA94228D92800994256
:1035C0002AD180222B689200E3609B182361254B4F
:1035D0006561FB189B00ED182B686562E3619B1821
:1035E000236280208000656A04F000FC6860A369A3
:1035F000002B02D0019A03CA03C3636A1A1D6262D8
:1036000080225B6892009A18E3612262BCE7B800EE
:103610009942D6D0801A281807F0FBFED1E7012383
:10362000002E00D033000236F6180E4B9E4201D910
:1036300004F094FFB00004F0D9FB751B636A6D08B9
:103640006169AD001A1D009045198A4203D0521AD3
:10365000280007F0DEFE206804F0CCFB009B6660CB
:103660002360AEE7FFFFFF3FF0B51F00002393B0DC
:10367000019008930A930B930C930D930E930F9361
:10368000109311932020083315000E00099304F0C5
:10369000ADFB099B08905C1E6408A40004198020FF
:1036A0008000029304F0A2FB80239B00C3182060DB
:1036B0000B900F900A900E9006A908A80C931093F7
:1036C000069507970D941194FFF750FF0123ED0025
:1036D000F7197B5505930A9B0E9A9A4240D01A68B7
:1036E0000B9802925A6803920C9A0492083A9342F9
:1036F0002AD0083300250A931C4B3100EF58029B57
:103700000198DF191A4B3A00EC58039B1C1923004F
:10371000FFF72CFC002813D0FB000493019BFA0058
:103720009B181B19DB7A002B0AD106A908A807945D
:103730000697FFF71BFF6A46049B127D3419E2547B
:103740000435102DD8D1C6E704F054FB0D9B1A1D8B
:103750000D9280225B6892009A180B930C92C9E735
:1037600008A8FFF7EFFE13B0F0BDC046140000201C
:1037700004000020F0B504000700002697B0019176
:103780000025642004F0E8F97B190022452806DDB5
:1037900001224F2803DD0222592800DD0322DA72BC
:1037A000019A023AD2B2029202996A1C02290AD8FC
:1037B000002E06D0072E04D0002D02D0072D00D0F9
:1037C00093E00321D9721500082ADAD101360837AF
:1037D000082ED5D14022002106A807F02DFE029B1D
:1037E000022B00D98BE001231A0006A92000FFF765
:1037F0003BFF0023039401930026019B06AADB00F4
:103800009B180593039B9B19DB7A002B2CD1059BFE
:103810009D5D002D28D1434B06A9EF58019B200048
:10382000DF19414B3A00EB58F3180493FFF79EFB66
:10383000002816D0049AFB00E3189B18DA7A002AB5
:103840000FD000274022DF72390006A807F0F4FDF0
:10385000029B022B55D801231A0006A92000FFF76E
:1038600003FF0435102DD6D10136082ECAD1019B95
:1038700001330193039B08330393019B082BBBD1B6
:103880000022032015000023D1006118029F5E1C56
:10389000022F09D8002A05D0072A03D0002B01D017
:1038A000072B31D1CB18D8723300082EEED101325C
:1038B000082AE8D12000FFF7D5FB02230720237256
:1038C000A37AD908CA00A2181840C3B2D518ED7A55
:1038D000002D20D1CA00A4180522E418E272134A70
:1038E0001160134A136017B0F0BD012E00D06AE7D3
:1038F000012D00D067E700231500237541E7002361
:1039000072E73B003A00A8E7012ACDD1012BCBD1C9
:1039100025753300BAE70133082BD7D101310832BE
:10392000D3E7C0461400002004000020EC0500206E
:10393000F005002070B51D001B680E0004005B6CD4
:10394000234928009847042E0DD83000002304F0A6
:1039500009FE03140B2A340023812360049A2900F2
:103960002000FFF737FD70BD23810223049A2360F6
:1039700029002000FEF72CFFF5E74B21238161563B
:1039800020006160C9B2FFF7F5FE63682A00D9B272
:103990002000049BFFF7D8F80021E06C01F060FDE7
:1039A00001232360DFE70322636022602381049AFE
:1039B00029002000FFF726FCD5E70422636022607F
:1039C0002381049A29002000FFF7A8FCCBE7C0461A
:1039D000FFFF0000F7B51F0013680D0004005B6CCB
:1039E0001249100016009847012D0FD0002D14D059
:1039F000022D08D16368013B06D463603A003100B0
:103A00002000FFF7FFFBF7BD6560F7E76368032160
:103A1000581C04F02BFF6160F0E7009733002A0088
:103A200061682000FFF786FFEDE7C046FFFF00005A
:103A3000F7B506000D0017001C00012918D0002959
:103A400002D002290BD0F7BD180000F092F90094C3
:103A50003B002A0003213000FFF76CFFF3E718005A
:103A600000F0A3F9220039003000FEF7B1FEEAE7CA
:103A7000180000F08BF9F5E773B5050014001E007F
:103A8000012921D0002902D0022907D073BD00935B
:103A900013000A000321FFF74DFFF7E702004B3246
:103AA0001378013B5BB21370002B02DA737A013B8F
:103AB0001370236820005B6C09499847320021008D
:103AC0002800FFF787FCE1E702004B32137801334F
:103AD0005BB21370717A8B42EBDB0023E8E7C046E0
:103AE000FFFF000073B50400006815001E000428E5
:103AF00007D804F037FD030B071A1E002000FFF75C
:103B0000BBFF73BD2000FFF793FFFAE70123627A42
:103B10002000534063722A003300FFF7C7FA3200D7
:103B200029002000FEF728FFEBE72000FFF752FFF7
:103B3000E7E700930321130020000022FFF7FAFEBD
:103B4000DFE70000F8B5037D067801330500037553
:103B5000042E07D8300004F005FD0375736F710063
:103B6000394B1C68A000C00E05F0F4FC011C04F0E9
:103B700031FFFA21890505F08DF901F0FBFE04F013
:103B8000F3FE2882E001C00E05F0E4FC011C04F005
:103B900021FFFA21890505F07DF901F0EBFE04F023
:103BA000E3FE68822003C00E05F0D4FC011C04F083
:103BB00011FFFA21890505F06DF901F0DBFE04F033
:103BC000D3FE28816004C00E05F0C4FC011C04F083
:103BD00001FFFA21890505F05DF901F0CBFE04F043
:103BE000C3FE6881A005C00E05F0B4FC011C04F002
:103BF000F1FEFA21890505F04DF901F0BBFE04F054
:103C0000B3FEA8811F20204005F0A4FC011C04F095
:103C1000E1FEFA21890505F03DF901F0ABFE04F063
:103C2000A3FEE881042E01D8084B1F7832237B4382
:103C3000EF8AFF18EF82F8BD054B92E7054B90E73E
:103C4000054B8EE7054B8CE7B4000020D400002024
:103C5000D8000020F8000020B8000020DC00002080
:103C6000002310B5040003700375FFF76BFF2000FD
:103C700010BD531E9A4110B50400D20101700275A7
:103C8000FFF760FF200010BD10B5027D80211400F9
:103C9000094B8C43D2111C805A8002899A80428938
:103CA000DA8082891A81C2895A81028A9A81428A7B
:103CB0001800DA8110BDC046F4050020007800B578
:103CC000042809D849008918890004F04BFC030C2A
:103CD0000A060800054BC85800BD054BFBE7054B1D
:103CE000F9E7054BF7E7054BF5E7C046140100205F
:103CF0009C000020FC000020BC000020E000002010
:103D0000F0B50400070005000E0087B00C348437BE
:103D100020001834FFF7A4FFBC42F9D10023002291
:103D20006B8100232A606B6001232B72002E1BD055
:103D30000433002618276B726B7AB34216DD02201B
:103D400003F00AFF6C46421E9041F1B2C2B220005D
:103D5000FFF78FFF3B007343EB180C3307CC07C30F
:103D6000013607CC07C3E7E70323E2E7280007B0E3
:103D7000F0BD1823C27A53430C338272C0187047C7
:103D80001822C37A5A430C328018704710B50400C9
:103D9000C07A617A0130C0B204F07EFC1820C9B24A
:103DA00048430C302018E17210BDC37A427A013BBF
:103DB000DBB2C372934201D9013AC2721823C27AAC
:103DC00053430C33C0187047F7B50193077A0400CA
:103DD0000D001600002F03D0012F25D0FF200FE08B
:103DE000417AC06800F02AFAE068310003681B6875
:103DF00098473900E06800F094FA002801D00120CB
:103E0000FEBD617A019AE06800F061FA0028F6D000
:103E10002E00019A731B9A4227D9E06803685B69F8
:103E2000984730700136F4E742680168006900F095
:103E3000E3FBA07A002104F0F5F9802120693143E9
:103E400000F030FC2E00019A731B9A4206D9002123
:103E5000206900F027FC30700136F4E7A07A0121D8
:103E600004F0E0F9206900F0E3FB0020C8E7F8B5B2
:103E7000077A04000E001500002F03D0012F1FD079
:103E8000FF200EE0417AC06800F0D8F9E068290010
:103E900003681B689847E06800F07BFA002801D0AF
:103EA0000120F8BD617A0122E06800F010FA0028D4
:103EB000F6D0E06803685B69984730700020F0E74F
:103EC000807A002104F0AEF962682168206900F070
:103ED00093FB80212069294300F0E4FB0021206945
:103EE00000F0E0FB3070A07A390004F09BF9206903
:103EF00000F09EFBE2E737B56B460024DD1DC26093
:103F0000417204720F222900FFF7B1FF2B786C2B4E
:103F100000D120003EBD37B50D0001AC02232100C9
:103F2000FFF752FF23882B803EBDF8B5057A0400C9
:103F30000F001600002D03D0012D16D0002013E035
:103F4000417AC06800F07AF9E068390003681B68BC
:103F50009847E068310003681B689847E06800F004
:103F600018FA431E9841C0B2F8BD42680168006962
:103F700000F042FBA07A002104F054F939002069D6
:103F800000F090FB3100206900F08CFBA07A290042
:103F900004F048F9206900F04BFBCFE710B5C824C6
:103FA0006400448302240E4BFA21036001220023A3
:103FB000FF3484830B4C4900C18204625439C41D10
:103FC00002758277437103710183E2772134227095
:103FD000054A8185428502002E321370036310BDAD
:103FE00000093D000800A001B80B000010B50C004E
:103FF0006A3C0023012C04D8FFF77DFF4342434174
:10400000DBB2180010BD37B56B469D1D2822290074
:104010000400FFF780FF002804D0042805D1238E78
:10402000013323860023E85E3EBD638E0133638641
:10403000F8E737B56B469D1D2A2229000400FFF7DB
:104040006AFF002804D0042805D1238E013323867B
:104050000023E85E3EBD638E01336386F8E737B523
:104060006B469D1D2C2229000400FFF754FF0028F9
:1040700004D0042805D1238E013323860023E85E73
:104080003EBD638E01336386F8E7000037B56B46AB
:104090000D00DC1D21001022FFF7E9FE2378280027
:1040A0001C07A40F9B071CD405F00AFA07F030F890
:1040B000022C10D0032C11D00F4A012C01D00F4B31
:1040C00000E00F4B06F0ACF900220E4B05F09EFD10
:1040D00007F070F83EBD084A0B4BF3E7064A0B4B5E
:1040E000F0E705F0EDF907F013F8022CF3D0032CFC
:1040F000F4D0014AE3E7C04608AC1C5A643BAF3F2A
:10410000643BDF3F00408F40643BBF3F643BCF3F99
:1041100010B50400FFF777FF01002000FFF7B6FF9E
:1041200010BD10B50400FFF784FF01002000FFF769
:10413000ADFF10BD10B50400FFF791FF0100200096
:10414000FFF7A4FF10BD00207047F8B505000E0072
:1041500017000024BC4208D02B68315D1B68280082
:104160009847002801D00134F4E72000F8BD7047DB
:104170000300FC33196ADA69914203D01B6AC01844
:10418000007E704701204042FBE70300FC33D86902
:104190001B6AC01A01D50130FF307047F7B5019393
:1041A000FA238026002504009B008360124B7600D2
:1041B00008330F0045602900009203603200183078
:1041C00007F03AF923002000FC332130DD61320092
:1041D0001D622900FF3007F02FF987239B00E318A9
:1041E0005D609D606B461B78276123756B461B796C
:1041F000A57520006375FEBD947F010070B50600B3
:1042000018250C49006902F049F8306901F0A5FE53
:104210002B000821307D084C4343E318595604F025
:104220004FF80821707D45436419615604F048F841
:1042300070BDC046A0860100348701008A23002299
:104240009B00C1540C3BC3185A609A6001238375CC
:104250007047020010B5FC32536894680133DBB23A
:104260009C4202D054680155536010BDF7B500243C
:104270000500170001932000A24227D02B00FC3339
:10428000DC611C620122286901F0A4FEA0421CD05E
:104290002E001836286901F01DFF0134010030009E
:1042A000FFF7D7FF2869A74206D001F073FE02216D
:1042B000286901F079FEEDE701F064FE019B002B17
:1042C00003D00321286901F06FFEE0B2FEBD10B5F6
:1042D0000123FFF7CBFF10BD002210B5837D934271
:1042E0000DD087239B00C4186368A4680133DBB238
:1042F000A34204D02130FF30FFF7ABFF01221000B2
:1043000010BD0300FC3399685A68914206D09A6840
:10431000805C9A680132D2B29A60704701204042B4
:10432000FBE700228A2370B59B00827505000E0012
:10433000C15C006901F04EFE002806D10321286906
:1043400001F032FE0224200070BD872328009B006C
:10435000EA18536894682130FF301C1B01D50134E2
:10436000FF34002C0ED02C69FFF7CBFFC1B2200028
:1043700001F06EFE0028E8D10321286901F014FE47
:104380000324E0E7002EDED00321286901F00CFEB3
:10439000D9E710B50121FFF7C4FF10BD10B51830E3
:1043A000FFF7AFFF10BD70B50400006901F070FEAB
:1043B000002814D0206901F079FE002810D020696F
:1043C00001F0E8FD0321206901F0EEFD8C239B0044
:1043D000E558002D39D10023FC34E361236270BD20
:1043E000206901F06DFE002809D0206901F063FE0C
:1043F000002804D0206901F068FE0028DFD0206981
:1044000001F05EFE002826D1206901F04AFE002856
:10441000E5D0206901F059FE002837D087239B00A2
:10442000E218536892689B1A01D50133FF33FF21CC
:10443000002B05D020002130FF30FFF762FFC1B212
:10444000206901F017FEA075C9E7236820001B69E9
:104450009847A847BFE7206901F09CFD2069032128
:1044600001F0A2FD206901F030FE0028B7D08723BB
:1044700000229B00E3185A609A600123A3758B23E6
:104480009B00E3589342AAD09847A8E72200FC3249
:10449000D369126A0133DBB22069934206D101F07D
:1044A00071FD0321206901F07FFD98E701F012FE04
:1044B000010020001830FFF7CCFE206901F06AFDF2
:1044C000EFE7000010B50248FFF76DFF10BDC046D2
:1044D0000406002010B50523042202490248FFF714
:1044E0005DFE10BD0C23002004060020F0B5040082
:1044F00085B01E000AAB1B78103001930BAB1B7804
:10450000170002930CAB1B780D00039300F01AF90F
:104510002000243000F016F9220000234032A3636B
:10452000E363137063729D4205D10A4B0A4A22214C
:104530000A4806F0E9FE6B461B79200063716B4662
:104540001B7A2560E3716B461B7B2771A671237272
:1045500005B0F0BDB87F01002D800100C97F0100CA
:10456000437A002B04D18372C372C3600133437258
:10457000704730B5040085B002AD00680291039227
:1045800001F05AFC6B79227AE179009320680023CC
:1045900001F05AFE2979029A206801F0A7FC2068F0
:1045A00001F040FC05B030BD70B518260400FFF7DF
:1045B000D7FF3300082120790D4D4343EB1859569E
:1045C00003F07EFE33000821A0794343EB185956CF
:1045D00003F076FE082160794643AD19695603F071
:1045E0006FFE044B200006CBFFF7C3FF70BDC04633
:1045F000348701007C08002007B5837A009101927E
:10460000002B07D09A070AD5EFF310835A42534183
:10461000C37272B60099019AFFF7ABFF07BDDB07C3
:10462000F8D5C368014A9BB29360F3E700180040D5
:10463000837A002B05D09A0704D5C37A002B00D0CB
:1046400062B67047DB07FCD5C368024A9BB2D360F1
:10465000F7E7C0460018004010B50068002903D1F4
:10466000013101F0F3FB10BD0021FAE710B50300A2
:10467000032908D8080003F075FF070B0209002181
:10468000186801F0F7FB10BD0121F9E70221F7E7F7
:104690000321F5E710B50068032900D8042101F0D3
:1046A00039FC10BD10B5006801F004FC10BD00001D
:1046B0001FB5094B094A0A491A6000225A711A713A
:1046C000012302930193093300930932023B054809
:1046D000FFF70CFF05B000BD7C08002000093D007D
:1046E0000423002038080020094B1868002809D14D
:1046F000EFF310820749002A08D172B6BFF35F8F2B
:1047000001320A701A6801321A6070470870F9E7BE
:104710008808002084080020084B1A68002A0CD062
:104720001A68013A1A601B68002B06D1044B1B78EB
:10473000002B02D0BFF35F8F62B67047880800205D
:1047400084080020FF23002110B504000370FC3B07
:1047500041708170C170017143710C22083006F004
:104760006BFE200010BD000001220B0010B51340AD
:1047700008D00D4B1A70042343708368002B00D0BF
:10478000984710BD0222114204D007490A704370B5
:10479000C368F3E704231942F3D0034A13700333C9
:1047A00043700369EAE7C0464E48004110B5FFF781
:1047B0009BFF0C4B1B8C1B071B0F0B2B0FD80A4AA4
:1047C0009900885800280AD00F2408490A78A24383
:1047D00013430B70064B1978C9B2FFF7C5FFFFF7FB
:1047E0009BFF10BD004800418C0800203F4800415D
:1047F0004E4800417047F0B51D0089B00EAB002453
:104800001C5F0FAB1B8816000693A31ADA179B18C0
:10481000534002936B1ADA179B1853400393039A81
:10482000029B0190934205DC23002C001D00330005
:104830000E001900A64205DC2B000D001900230014
:1048400034001E00331B9BB204934B1BDA179B18DA
:10485000534007936B4610229A5ED30F9B185B1050
:10486000009301238D4221DA0593B44224DC019B9D
:10487000039A1B689B691F00029B934218DD22006C
:104880002900069B0198B847009B079A9B1A9BB288
:104890001AB20092002A06DA059AAD18049A2DB2CF
:1048A000D3181BB20093013424B2DEE75B42DBE78E
:1048B000069B2A002100E5E709B0F0BD704710B55E
:1048C00004682469A04710BD37B506AC2588046884
:1048D0000095A46BA04737BD37B506AC25880468A2
:1048E0000095E46BA04737BD73B506AC0025655F46
:1048F00007AC2688046801960095246CA04773BD18
:10490000F0B5160004000D0085B003930AAB1F88B4
:1049100003685B699847039B2268013B9B191BB2A4
:1049200000930197976A2B00320029002000B847B6
:1049300023682000DB6A984705B0F0BDF0B505009C
:104940001C000E00170085B00AAB1B88013C0393C6
:104950000368A4195B69984703992A680191009735
:1049600023B23100946A28003A00A0472B6828003F
:10497000DB6A984705B0F0BDF0B50E0087B0039331
:104980000CAB029200229B5E050004930DAB1B88CA
:104990003400059303685B699847039A2B68B21843
:1049A00094420ADA059A210000921F6A029A049B37
:1049B00028000134B84724B2EFE7DB6A28009847A3
:1049C00007B0F0BD13B501910E24015F0C22835E88
:1049D00002680091146C00221100A04713BDF0B5CD
:1049E000040015000E0087B004930CAB00229B5E00
:1049F00005930DAB1B88039303685B699847039A83
:104A0000236800925F6A2A00049B31002000B847A7
:104A1000059B03995A1E2368009152195F6A310061
:104A2000049B200012B2B847039A236800921F6AC1
:104A30002A00059B31002000B8470499039A236897
:104A400001390092891909B21F6A2A00059B2000CA
:104A5000B84723682000DB6A984707B0F0BD70476D
:104A6000F0B585B01E000AAB0027DF5F0BAB1B88DB
:104A700014000500029103930268B14210D1BC42B8
:104A800002DC3B0027001C00039901340091E31B6A
:104A9000966B1BB23A0002992800B04705B0F0BDF2
:104AA000BC4211D1029BB34202DC3300029E02934E
:104AB000029B0399013300919B1BD76B1BB2220011
:104AC00031002800B847E9E753699847039A2B68F3
:104AD000019200979F6A2800330022000299B8478C
:104AE0002B682800DB6A9847D8E703231940431C4A
:104AF00010B5D9770822835E0A24025F012904D009
:104B0000032902D08381C28110BD8281C381FBE76A
:104B10004281C281012252424261FE220023018170
:104B20008181012110B5084C92058261C26108346F
:104B3000421C436004600361D377821CD177C21C9E
:104B4000D377436210BDC04684850100F0B591B0B3
:104B50001C0016AB029200229B5E0D00049317AB63
:104B600000269E5F18AB00229B5E0499039319AB4D
:104B70001B88029A0993036807005B698A4265DD16
:104B800003998A4200DD7EE0029A049904922A0089
:104B900025001400029138009847029B039A934223
:104BA00000D08BE0A54202DD2B0025001C00B542A1
:104BB00005DC231CB44200DA331C2E001CB2099918
:104BC0003A6801340091A31B556A1BB2029A310066
:104BD0003800A8473B683800DB6A984711B0F0BD41
:104BE000049B0C9AF31A5A43029B0492089AF31AF4
:104BF0005A430292039B9E42ECDC0F99049803F007
:104C00004FFD059B0B99181804B2029803F048FD5C
:104C10000C9A049B9446089A634494460493029B1E
:104C20002818634401B202938C4202DC0B0021007D
:104C30001C0009983A680134631A0090546A1BB248
:104C4000320038000136A04736B2D3E7049A039900
:104C50008A42A0DD029A03998A4223DC049A0299CF
:104C6000049103990392220002912C003500160052
:104C70008AE738009847029B039A03932B0035007C
:104C800002921E001AE0049A03998A42F1DC9847C6
:104C9000049A029B0292039A039304922B0025002C
:104CA0003400EEE738009847029B039A0292049A78
:104CB00004932B00350026001C000392A3B2ADB272
:104CC00005935B1B1BB26A460D936B4611891B8AC9
:104CD000B6B25A1A12B20E92721B12B208926A46F9
:104CE0009289511A09B20B910599D21A761A31B2EA
:104CF00012B20C910F920399049A0A928A4202D03E
:104D0000013B1BB20A930023029E079306930A9B62
:104D10009E4200DD64E70E99069803F0C1FC281856
:104D20000B9904B2079803F0BBFC0D9A069B9446BE
:104D3000089A634494460693079B2818634401B27B
:104D400007938C4202DC0B0021001C0009983A6892
:104D50000134631A0090546A1BB2320038000136E5
:104D6000A04736B2D3E7F0B58DB0089312AB0392EB
:104D700000229B5E0791049313AB00229B5E04000C
:104D8000099314AB1B880A9303685B699847072251
:104D9000049B039FD91DCB1713405B18DB100593B1
:104DA00000231D0001930B92039ABBB206939B1A3A
:104DB000099A1BB29A422BDD0023049A93421EDA11
:104DC0009AB202920B9A6D0099B2EDB2114204D1DF
:104DD000089A0199DB105218D55C6BB2002B0ADAE5
:104DE000079B029A2000D118236809B29B693A00F8
:104DF0001E000A9BB047029E013633B2DDE7059ADA
:104E0000019B9446069F6344013701933FB2CBE771
:104E100023682000DB6A98470DB0F0BDF0B51E0096
:104E200089B00EAB029200229B5E069103930FABFA
:104E300000229B5E0400079303685B699847039B0D
:104E4000029F5B0004930196029ABBB205939B1AE2
:104E5000079A1BB29A421ADD002503992BB22268E9
:104E600099420CDD01996B00CB5A06999269491958
:104E7000160009B23A002000B0470135EDE7019A6B
:104E8000049B059FD318013701933FB2DCE72368E9
:104E90002000DB6A984709B0F0BDF0B58DB01D0069
:104EA00012AB059204CB0891099200229B5E04008C
:104EB000039314AB00229B5E0A9303685B699847D7
:104EC0000722039B01955B000693039B0B92D91D60
:104ED000CB1713405B18DB100793059B009300234F
:104EE0001D0002936B46059A1B8804939B1A0A9A2D
:104EF0001BB29A422FDD0026039A33B293421BDA8B
:104F00000B9A6D00B1B2EDB2114204D1099A029828
:104F1000DB101218D55C6BB2002B0BDA019A730010
:104F2000D35A089A20008918226809B2926917009A
:104F3000009AB8470136DFE7069A019B9446079A24
:104F4000634494460193049F029B01376344029398
:104F50003BB20093C6E723682000DB6A98470DB098
:104F6000F0BD0000F0B595B01D001AAB1B88040021
:104F700005931BAB1E881CAB1B78089103931DABDC
:104F80001B7804920293436A002B00D0C5E00C22E8
:104F9000835E8B4200DC7EE00E22835E049A9342A5
:104FA00079DD0623039A53435B18002B73DD029BC4
:104FB000049ADB009B18002B6DDDC31CDB7F002BEC
:104FC00003D1AF2D01D90135EDB2236820005B6913
:104FD000984705235D430B9300230793984B5B1978
:104FE0000F93079A0F9B9B5C0A936B469B8B0993CD
:104FF0006B469B890D936B460D9A1F8C099B5343FF
:10500000FB181BB20E9308230C9300230693012276
:105010000A9B2068134252D06B461A8B198A039B55
:10502000012B3AD1029B012B37D1099B521885697C
:10503000D919059B12B209B22000A847069B01337B
:105040005BB206930A9B5B080A930C9B013BDBB2A5
:105050000C93002BDBD1079B01335BB207930B9BB7
:10506000013BDBB20B93002BBBD1059BB3420ED0AF
:10507000039B2268012B3FD1029B012B3CD10537BA
:105080000096156A39B20733049A2000A8472368AE
:105090002000DB6A984715B0F0BD6B460C255B5FBE
:1050A000029D6A438A18059912B201916946082542
:1050B000495F0091C5690E992000A847BEE7059B8E
:1050C000B342BBD06B46198B1A8A039B012B0AD1C2
:1050D000029B012B07D1099B5218D91912B209B2B0
:1050E00085693300A8E76B460C255B5F029D01963E
:1050F0006943521812B2D9E76B460C215B5E052159
:105100000D980196414302987918C0000090D56926
:1051100009B2049A2000A847B9E71A7AAD1AEDB28D
:105120005A68ED001B68551913932B880993AB78C7
:105130000D93EB7811930523EB560E930623EB5654
:105140000F93039B012B02D8029B012B56D96B4670
:1051500038229B5E0B936B463C229B5E0C93002790
:10516000236820005B69984707970697119B069A6A
:105170009A4200D38BE76B461B8A00260A930C9B4E
:105180009B18029A53430A9AD3181BB210933B0000
:105190000D9A96424BD25A1CD2B212920722134257
:1051A00007D1099B0999139A0133525C9BB207926C
:1051B00009936B461B7F5BB2002B17DA6B46198C89
:1051C000039B2068012B1DD1029B012B1AD10A9B46
:1051D0000F9A9A18069BD2180E9B12B2C9188369AF
:1051E00089191D0009B2059B2000A847079B0136BD
:1051F0005B00DBB20793F6B2129BC9E700230C9366
:105200000B93ACE76B460C229B5E0B9A039D9219A5
:105210006A438918059A09B201926A460825525FC5
:105220000092C26920001500109AA847DEE7069D8B
:105230000D9B0135FF18EBB2FFB2069396E7C0460F
:1052400081800100F0B5466A89B004000D00002E8F
:1052500000D073E00A2914D106821223C05E04F044
:105260002FF98221051CC905E06903F013FE011C1A
:10527000281C03F0AFFB04F003F96082012009B0A1
:10528000F0BD0D29FAD08369C7690593831CDB7FC4
:10529000002B29D01023C05E04F012F9614906905A
:1052A000059803F0F7FD011C069803F093FB0690A8
:1052B0000C23E05E04F004F9011C069803F040FBA7
:1052C000002811D01223E05E268204F0F9F8822132
:1052D000061CC905381C03F0DDFD011C301C03F061
:1052E00079FB04F0CDF860821223E65E1022A35E03
:1052F000381C069303F038FBC0B20390059803F006
:1053000033FBE38AC0B20193A38A3200069902906C
:10531000009320002B00FFF725FE1023E05E04F031
:10532000CFF84049051CA06903F0B4FD011C281CFE
:1053300003F050FB04F0A4F820829FE70A2909D16A
:1053400000230382C06904F09BF8337B5843638ACF
:10535000C01892E70D2900D190E7377AB94200D200
:105360008CE7B37A8B4200D288E7CF1B7368FFB219
:10537000FF00DF19BB78002B4CD0FA78002A49D007
:1053800082690692C2690592821CD27F002A28D0C7
:1053900005203856C01804F093F8069903F07AFDFA
:1053A00007901023E05E04F08BF8011C079803F0CF
:1053B00011FB07900C23E05E04F082F8011C0798B3
:1053C00003F0BEFA00280CD01222A35E05980793C2
:1053D0000023238204F054F8337B5843079BC01802
:1053E00060821223E65E1022A35E0598079303F005
:1053F000BBFAC0B20390069803F0B6FAE38AC0B2D3
:105400000193A38A0290009332002B000799200099
:10541000FFF7A8FDA06904F033F83B795843238ACD
:10542000C01889E70000C04070B50D1C06000021BF
:10543000281C141C03F084FA002801D1FE25AD05B8
:10544000B5610021201C03F07BFA002801D1FE2465
:10545000A405F46170BD10B50A1CFFF7E5FF10BD8F
:1054600010B50400002904D1437E002B05D0022B87
:1054700008D900232160237610BD02F035FCA36813
:10548000C118F6E702F02AFC6368F9E710B50400DA
:10549000637E0800012B0DD0002B02D0022B0ED012
:1054A00010BD05F003FE074A074B04F0B9FF206268
:1054B0006162F5E705F0FAFD044A054BF5E705F0F2
:1054C000F5FDF4E78DEDB5A0F7C6B03EFCA9F1D22D
:1054D0004D62503F70B50500446802F0FFFB6B7EE3
:1054E0000200002B03D00020022B07D970BDAC684E
:1054F00002F0FAFB2B68E41A2018F7E72868201A54
:105500008018F3E770B50500FFF7E4FF6C7E060036
:10551000012C14D0002C03D0022C10D000200DE060
:105520000022286A696A0B4B04F07AFF03F034FA10
:1055300086426441E0B2002800D02E6170BD002296
:10554000286A696A044B04F06BFF03F025FA002413
:10555000EEE7C04680842E4100408F4070B50500C4
:105560000E00FFF7CFFF0400002E05D0002803D067
:1055700000212800FFF774FF30352B785842434153
:105580005842204070BD0000064A074B11680029B0
:1055900004D1186010600023436370471A681860D4
:1055A0005063F8E7BC080020C0080020012370B554
:1055B000002243760023026243628262C3620300D8
:1055C00000250E4E303345608560C5604561057627
:1055D0001D7033780400013B5A4253413370FFF78A
:1055E00055FF29002000FFF73BFF3378AB4202D183
:1055F0002000FFF7C9FF200070BDC046C40800208E
:10560000F8B504000025230045608560C56045614C
:1056100005760F00002000210E4E303320626162BB
:10562000A062E1621D7033786276013B59424B41C2
:10563000200039003370FFF729FF29002000FFF711
:105640000FFF3378AB4202D12000FFF79DFF20000F
:10565000F8BDC046C408002007B5002007F016FFBB
:105660006B460733181A0EBD70B5002950DB0C25A8
:10567000445F8C424CDD002A4ADB0E25445F944295
:1056800046DD042502265C132C405D123540DB0606
:105690002C43DB0FE318441CE47FB44223D0032CDB
:1056A0002AD0012C04D1D243008980180A0001B20B
:1056B00003204843302107244A43C11721400918D9
:1056C000C91052182B49084004D508210138494215
:1056D0000843013007281BD8274902F043FF131A5B
:1056E0001F24292E323E0489013C611AD443428989
:1056F00009B2121912B2DBE740890138401A1100D1
:1057000002B2D5E71F24885C5B012040C3188B548C
:1057100070BD7024885C1B01A043F7E73824885CC7
:10572000DB00A043F2E71C24885C9B00A043EDE76C
:105730000E24885C5B00A043E8E70724885CA04354
:10574000E4E70324885CA0435C1000197F2488549C
:105750000132885CDB012040D8E70124885CA0434B
:105760009C1000193F2488540132885C9B01204022
:10577000CCE7C04607000080C508002070B50400D3
:10578000802226000D001100FFF7C2F9084B2836D1
:105790000833236028003570012102F043FD307882
:1057A000012102F00FFD02232000E36270BDC0461C
:1057B000DC86010070B50400C022250052012835A6
:1057C000FF210E4805F038FE2878012102F02AFD5D
:1057D0000421E36A0A4E19433000C9B2FEF762FFA2
:1057E00030000021FEF75EFFE36A00215A42534178
:1057F0005B00E362287802F015FD70BDC50800204B
:105800003808002070B50500036802211B6B98471B
:10581000094C2000FEF7C8FE20001821FEF73AFFD1
:1058200020000221FEF722FF00212000FEF714FFD6
:105830002800FFF7BFFF70BD380800200300F7B550
:1058400006000124283301931878012102F0EAFCB4
:10585000F16A204D2143C9B22800FEF723FFF36A05
:1058600021005A425341A3402800F362FEF71AFF79
:1058700021002800FEF7F0FE2700174A631ED15CC6
:105880002800FEF70FFF3021200002F009FF013051
:1058900086B2BE420CD000212800FEF703FF81270C
:1058A000802E05D80D4B2800995DFEF7FBFE3700D2
:1058B0000B4B01349C42E0D128000021FEF7CCFEC6
:1058C00028000021FEF7EEFE019B0021187802F06F
:1058D000A9FCF7BD38080020C5080020DC850100C0
:1058E0000118000010B5024801F087FF10BDC04646
:1058F000C820002013B51249124800F0FDF91249E2
:10590000124800F0F9F91249124800F0F5F912496D
:10591000124800F0F1F9124C1249200000F0ECF9A5
:105920001149124800F0E8F9002301930133009374
:105930000722053321000E4801F0CEFE13BDC046FC
:105940000008004204230020000C0042082300202D
:10595000001000420C2300200014004210230020FD
:105960001423002000180042001C004218230020CD
:10597000C8200020F0B5C64643005F081B0E7F3BE1
:1059800000B5051C06001C00162B1CDC8046002BF5
:1059900021DB1A4F1F41074211D0194903F01AF8B1
:1059A000002102F0CDFF002809D0002D04DD802366
:1059B0001B0423419846A8444346BB431E00301CA9
:1059C00004BC9046F0BD0F4B9F42F8D9011C03F078
:1059D00001F8061CF3E70A4902F0FCFF002102F07F
:1059E000AFFF0028EBD0002D04DB002FE7D0FE2610
:1059F000B605E4E780263606E1E7C046FFFF7F00F4
:105A0000CAF24971FFFF7F7FF7B506000D000C0059
:105A10008B180193019B671B9C4207D03368217848
:105A20001B683000984701340028F3D13800FEBDD0
:105A300070B5040008000D0006F030FE2368020077
:105A400029005B682000984770BD10B50B1E02D07E
:105A5000FFF7EEFF0300180010BD10B503688A6859
:105A60005B680968984710BD10B5FFF7EEFF10BDE1
:105A700010B503681B68984710BD000010B50249B7
:105A8000FFF7D6FF10BDC046D888010070B50400EE
:105A9000FFF7DBFF05002000FFF7F0FF401970BDA6
:105AA0000EB430B596B019AB04CB0500502102A856
:105AB000019307F021FD040002A92800FFF7C5FFAC
:105AC000200016B030BC08BC03B01847F0B58BB04E
:105AD0006B461500002205330600DA770800012D19
:105AE00000D80A2509AC290002F0D6FDCAB213007D
:105AF00037330700DBB2092902D813003033DBB299
:105B0000013C2370002FEED121003000FFF79DFFF4
:105B10000BB0F0BDF8B506000C00151E04D10368EB
:105B2000C9B21B689847F8BD0A2A0CD100290BDAC4
:105B30002D21FFF79DFF614207002A003000FFF78B
:105B4000C5FF3818EFE7D2B221003000FFF7BEFFE3
:105B5000E9E770B50400FFF7DDFF05002000FFF75F
:105B60008DFF401970BD0000F7B51E0008AB1B7813
:105B700031000193050033001000170005F00AFA08
:105B80004B49002814D10122740064085242494B49
:105B90003800210005F0FEF900280FD10122454B05
:105BA00052423800210002F087FE002806D1424907
:105BB0002800FFF73DFF04002000FEBDE0223F4B20
:105BC00012063800310002F081FE002801D03C4965
:105BD000EEE7E0223B4B12063800310002F062FE95
:105BE0000028F4D1002200233800310002F05AFED0
:105BF000041E07D02D212800FFF73AFF8023040060
:105C00001B06F618002300202F490093019B009AE1
:105C1000934208D02D4B002203F0F8FF009B013384
:105C2000DBB20093F2E733003A0003F0D3FC0F003D
:105C3000060002F0B1FE0A22019001002800FFF7E1
:105C400045FF009B0419002BB6D0019805F02EFAF1
:105C500002000B003000390004F054FE06000F0073
:105C600028001B49FFF7E4FE2418009B013BDBB230
:105C70000093FF2BA0D0154B00223000390004F018
:105C8000CFFB0F00060002F087FE0A220100019000
:105C90002800FFF71BFF2418019805F007FA0200FF
:105CA0000B003000390004F02DFE06000F00DCE789
:105CB000CC880100FFFFEF7FD0880100FFFFEF419C
:105CC000D4880100FFFFEFC10000E03F0000244046
:105CD000F8FB000037B519000400069B2000DBB27A
:105CE00000930B00FFF740FF05002000FFF7C6FE02
:105CF00040193EBD10007047016070479446F0B5F2
:105D00009E1E721E96416246056892072F683606EF
:105D10003A4332432A60072505AC24780068A40181
:105D20002940214342680024022B00D05C03114328
:105D300021434160F0BD30B5C0250368AD031C6848
:105D400012052A402243C0240904A4022140114321
:105D5000196003685A6814435C6030BD012302680F
:105D600011680B43136003681A68D207FCD4DA6920
:105D7000D207F9D470470223026811680B431360FD
:105D80000268D3699B07FCD4704703681A7ED20768
:105D900002D41A7E9207FCD57047002203685A830A
:105DA00070470368187E4007C00F70470368187E6D
:105DB000C0097047802302685B42117E0B43137653
:105DC00070470368588B8007C00F70470223026832
:105DD000518B0B43538370470368187EC007C00F75
:105DE00070470368188DC0B2704703681A7ED207E7
:105DF000FCD589B2012019857047012203689A7584
:105E00007047012203681A75704701230268116800
:105E10000B43136003681A68D207FCD4DA69D2070F
:105E2000F9D470470223026811680B4313600268BB
:105E3000D3699B07FCD470470368DA699207FCD4E6
:105E400002211A688A431A607047000070B5040086
:105E50000D00FFF7F1FF0122236815401968044A7D
:105E6000AD071140294319602000FFF7DBFF70BD2B
:105E7000FFFFFFBF70B5012604000D00F140354063
:105E80000E40FFF7D9FF2368084A196876071140CA
:105E9000314319602268064913682D070B402B43D4
:105EA00013602000FFF7BEFF70BDC046FFFFFFDF9D
:105EB000FFFFFFEF0268936A5B0A5B02194391627E
:105EC00003681A7E5207FCD5986AC0B2704700007A
:105ED00010B54900044802F059FB80B2002801D0F7
:105EE000013880B2C0B210BD006CDC0270B54B0846
:105EF0000C00012105680B400C402E6824075B074D
:105F0000234333432B6011000468FFF7E1FF207344
:105F100070BD000070B50E000400FFF78DFF31006A
:105F2000064802F033FB01002000FFF7D1FF25688F
:105F300028732000FFF776FF70BDC046006CDC02BE
:105F40000123026811680B43136003681A68D207C3
:105F5000FCD4DA69D207F9D47047022302681168C9
:105F60000B4313600368DA699207FCD430215A8B23
:105F70008A43110010220A435A830268D3695B07DF
:105F8000FCD4704780230268DB02116851680B4320
:105F900053607047036803491A685A680A405A6098
:105FA0007047C046FFFFFBFF032230B50368114076
:105FB0001C68074D5A6809042A40E4061143640F1F
:105FC0005960052C03D10268D3695B07FCD430BD4E
:105FD000FFFFFCFF30B503680400588B8006800F7C
:105FE000022814D05D8B0020AD06AD0F032D2ED0FE
:105FF000588B800705D55D8B0020AD06AD0F012DB8
:1060000025D100205D8BAD06AD0F85421FD0480025
:10601000596A1043C90AC0B2C902014359622368D0
:10602000002A08D11A7ED207FCD5588B4007C30F2F
:10603000012058400BE0187E8007C00FF5D11A7E72
:10604000D207F8D5C022596892020A435A6030BD7F
:106050000368283319700368187EC007C00F03D186
:106060005A8BD207F8D57047588B4007C30F0120D1
:106070005840F8E7036828331970036800201A7E37
:10608000520704D5588B01234007C00F5840704772
:1060900003681868C006400F043843425841C0B234
:1060A00070470368187E4007C00F70470368187E6A
:1060B000C007C00F70470368588BC006C00F7047F9
:1060C0000368187E8007C00F70470368588B00076D
:1060D000C00F704703681A68D206520F052A02D112
:1060E0001A7E9207FCD528331878C0B2704700009A
:1060F0000368104A934213D00F4A934212D00F4ABA
:10610000934211D00E4A934210D00E4A93420FD0C0
:1061100001200D4A4042934201D1063040B27047FF
:106120000020FBE70120F9E70220F7E70320F5E76D
:106130000420F3E700080042000C00420010004277
:106140000014004200180042001C0042F8B5FFF79E
:10615000CFFF00282CDBC3001C48FF22C0180523FA
:106160000479C35603201840C0008240C021D243A6
:106170008140002B1DDB1F2501201D40C026A840AB
:10618000134D7600A851C0269B089B005B19B600F2
:106190009F593A401143995128603F23234080245E
:1061A000E4011C430B4B5C805A7852B2002AFBDBA3
:1061B000F8BD0F200340083B07489B089B001B18B5
:1061C000D86902401143D961E7E7C046DC88010085
:1061D00000E100E0000C004000ED00E0F8B5040034
:1061E0000F0016001D00FFF7B1FF2000FFF7B6FDFE
:1061F0001C21BB000B4071072268090C0B43136084
:10620000842322689375012F1AD11021012E00D00A
:1062100008390C4B69431868C00002F0B7F907222F
:10622000216802408B895203DB04DB0C13438B8112
:10623000226803049089DB0C400B400318439081D3
:10624000F8BDC046A8010020F7B50400019308ABD3
:106250000D0016001F78FFF7D8FD2000FFF776FF2E
:10626000C0223605920332400C261643C0222D046C
:1062700092021540072223683543BF072F431F6052
:10628000019B216813401A0080239B0213434B603B
:106290002268D3695B07FCD4F7BD0000F8B50400A1
:1062A0000F00FFF753FF2000FFF74AFE1422236878
:1062B00079001A600C4B25681E68300002F066F900
:1062C0000A490400300002F061F97D23FA215843A5
:1062D000C90002F05BF9FF23241AE868053C1C4062
:1062E00098430443EC60F8BDA801002040420F0031
:1062F0003F20704713B56B460268D9710733546865
:1063000019000122A04716BD10B50221006900F056
:106310000BFD034B1B6801335A1E9341181810BD27
:106320007C01002010B50321006900F013FD10BDB1
:1063300010B50321006900F0DBFC10BD10B5054C61
:1063400023685A1C04D103685B69984703002060E6
:10635000180010BD7C010020074B0200186810B522
:10636000411C03D0012252421A6010BD0221106963
:1063700000F0DAFDF9E7C0467C01002010B51300FB
:10638000094A0400D079C0B2002805D1627E002AF3
:1063900002D00123636006E00A002069032100F0B7
:1063A000D1FD0028F5D010BD3001002010B50378D4
:1063B0004222023303700249024800F06FFE10BD12
:1063C000380100203823002010B5017802004378FE
:1063D0000020A12908D1212B05D1072216491748F1
:1063E00000F05CFE012010BD2129FCD1202B13D12F
:1063F00007221149114800F0F1FC96220E4BD20001
:10640000196891420ED10124D87904400AD1FA20AA
:1064100001F0B8FF0020E6E7222B06D19278064B68
:10642000DA71EAE701F0B4FFF4E7232BDBD15288FD
:10643000034B1A60D7E7C046300100203823002004
:106440002C0100200123437670470000FA2200212E
:10645000054B92009A60054A596008321A60044A56
:1064600019761A617047C0461C2300200C89010070
:10647000382300207047704770B50F26CB1D0139B7
:1064800002003240D5B22C0000093034092A00DD68
:1064900007341C70013B8B42F2D170BDA02110B5B6
:1064A0000400490002F056F8200010BDF8B5032999
:1064B00008D1304B8000C058002802D003689B6888
:1064C0009847F8BD822919D1C3B22B4D5A01AA1899
:1064D00091692A4C80010C40C021890521439161BA
:1064E0002749083340187021506128685B011A5C05
:1064F0008A43110030220A431A54E2E70029E0D10E
:10650000C026C1B21C4C4B01E3189A681B4DB6055E
:106510002A4032439A601B4A800182185A600A005E
:106520000727246808325201115DB9430F00012189
:10653000394311559F6912493D4040182E439E61D1
:1065400058617020115D81430800102101431155ED
:1065500099680D48A21808408021490301439960B9
:106560009968890B89039960402311790B43137152
:10657000A7E7C0463C230020F0270020FFFFFF8F45
:106580006423002024250020FF3F00F0EFF3108358
:1065900003600123436072B670470368002B02D189
:1065A00062B6BFF36F8F7047F7B50500FC35EB6936
:1065B0000600002B18D196277F00C45D6846FFF7C0
:1065C000E5FF019BE4B2013B02D3F45DE4B2FAE7DC
:1065D00068460193FFF7E1FF002C01D10020FEBDCA
:1065E000E86AAB6AC01AFAE76846FFF7CFFF9E2257
:1065F0000024019B5200013B02D3B45CE4B2FAE7F1
:1066000068460193FFF7C9FF002CE7D0E86BAB6B3E
:10661000E8E7000030B54468FC3043698069DBB2CC
:106620005A01A2189168094D8004294000090143CC
:10663000916091680833890B8903916022685B013E
:10664000D318402219790A431A7130BDFF3F00F078
:10665000F7B50500FF21FC356A6943680A401B68ED
:10666000083252019A18D3790400DB0754D5012669
:10667000D6716B6962680B405B01D318286A9A680F
:106680009204920C002822D1EA62EA6A002A40D0E1
:106690006A6B2E6268465A60FFF778FF9E273E219C
:1066A000019B7F00013BFF315A1C2ED096225200E5
:1066B000A654E25D581ED2B2002A05D06654684640
:1066C0000193FFF76AFFF7BD62540300ECE7EA634A
:1066D000EA6B002A1DD000222A626A6A68465A6064
:1066E000FFF754FF96273E21019B7F00013BFF31BE
:1066F0005A1C0AD09E225200A654E25D581ED2B205
:10670000002ADBD162540300F2E768460193FFF7E9
:1067100044FF2000FFF77EFF63681A686B69DBB2F5
:1067200008335B01D3187F22DA71CCE7F7B5070095
:1067300068463C00FFF72AFF0026FF22019BFC343D
:10674000013B0DD3E0682169884204DBE6682069DB
:10675000961B3618F4E72669E168761A013EEFE7E2
:1067600068460193FFF719FFE3696846002B52D191
:10677000FFF70CFF9621019B4900013B5A1C0CD0EE
:106780007D5C5A1EEDB2002D05D168460193FFF7DE
:1067900004FF2800FEBD1300F0E7684601930025C2
:1067A000FFF7FBFEFF21A36AB54214D0E26A9A42CA
:1067B00011D95A1CA262626AD3181878E368226958
:1067C0000133C0B20B40934203D0E268BA18107292
:1067D000E3600135E7E7E26A9A42DAD10023A36277
:1067E0000133E36168469624FFF7D0FE64003E2241
:1067F0000021019BFF32013B581CC6D03955B85CC3
:106800005E1E002805D0B95438000193FFF702FF3F
:10681000EDE73300F0E7FFF7B9FE9E21019B490049
:10682000013B5A1C06D07D5C5A1EEDB2002DACD047
:106830001300F6E7684601930025FFF7AEFEFF213F
:10684000A36BB54202D0E26B9A421DD8E26B9A422A
:106850009FD100236846A363E3619E24FFF796FE61
:1068600064003E220021019BFF32013B581C00D1F5
:106870008BE73955B85C5E1E002817D0B954380034
:106880000193FFF7C7FEECE75A1CA263626BD318B3
:106890001878E36822690133C0B20B40934203D0F9
:1068A000E268BA181072E3600135C9E73300DDE72A
:1068B00010B50400FFF73AFF2300FC331969DA68CA
:1068C000914203D01B69E418207A10BD0120404298
:1068D000FBE710B50400FC34FFF728FFE0682369EC
:1068E000C01A01D50130FF3010BDF0B585B001925E
:1068F00000910500FFF71AFF02A8FFF747FE0120ED
:106900000024FF26039B40425A1E531C1FD02B001D
:10691000FC3301998C4218D2D9681F69C91B01D573
:106920000131FF31002910D01969DF688C46010060
:10693000BC4506D019691F69691801373740097AC3
:106940001F61009F39550134E3E7013ADDE702A8F2
:106950000392FFF722FE200005B0F0BD37B56B466D
:10696000DC1D00230D0020002370FFF71FFD2B68A6
:106970001818286001F094FD210001F04DFD2B68EE
:106980001818286020783EBD02220B0010B59343F2
:106990000C00012B0BD10D4B08341B6864011C1932
:1069A000802321795B420B432371E27110BD01F01A
:1069B00077FD210001F064FD0028F7D0034B083477
:1069C0001B6864011C197F23E371EFE7F0270020A7
:1069D00070B50024374B012105000B201C7001F01D
:1069E000F1FB01210B2001F01DFC334B01210C2098
:1069F0001C7001F0E7FB01210C2001F013FC2023A7
:106A00002E4A0F20D1690B43D36101222C490B7808
:106A100013430B702B4B19788143197006211C7896
:106A20002143197028490C7822430A701A780240D1
:106A30001A70602219780A431A70244B244A5A802B
:106A40005A78D209FCD1234801F042F9224C7F2622
:106A5000200001F037FD200001F04CFD0C2108233F
:106A60002068C2788A4313430322C3702068C37826
:106A70009343013A1343C370206803783340037093
:106A800004232068067833430370206803898B430E
:106A90000381C120114980000B581B021B0A0B50B7
:106AA00080230B60236819780A431A7001232B7026
:106AB00070BDC04659230020582300200004004028
:106AC000584400413C44004159440041000C0040FE
:106AD000064000000D750000F027002000E100E0F6
:106AE0000078002810D00121084B1B681A898A43BE
:106AF0001A810822198B0A431A830422198B0A432C
:106B00001A830022024B1A607047C046F02700200B
:106B1000E827002010B50F4A93699B0B9B039361F4
:106B200013680222FF331A729879823A02439A71EB
:106B30001A7A9207FCD57F24074A2140937A0800ED
:106B4000A3431900802301439172917A5B420B4366
:106B5000937210BDF02700200050004110B50B7952
:106B60000C00002B0CD10800FFF72EFC002801D0F0
:106B7000012010BD094A93699B0B9B039361F7E7C2
:106B800001F08EFC210001F06BFC0028F0D1034ADB
:106B900093699B0B9B039361EBE7C046F0270020B2
:106BA000F8B50D00832A19D1CBB2434C5A01A21873
:106BB00091694248AD010840C021890501439161B6
:106BC0003F4920686D187021083355615B011A5CDC
:106BD0008A43110040220A431A54F8BD022A65D1A3
:106BE000384B8A00D058002802D003689B69984728
:106BF000A020400001F0FAF880270600324B7F0009
:106C000003602D4B002143603A00083004F014FC6F
:106C1000340096220023FC345200E360A362236117
:106C20006561E361A7612362E362B3541032A36339
:106C3000E363B3543E223800FF32B35404F0BAFB8E
:106C40006062380004F0B6FB2B006063FF201A4935
:106C500003405A018A189168184F08330F40C02129
:106C60008905394307279160134A5B011168AD001C
:106C70005A5CBA43170003223A435A546169736855
:106C8000014049015918636A4B60736862691B6867
:106C9000024052019B1801221B18997A30000A43C6
:106CA0009A72FFF7B7FC074BEE5096E711002800E9
:106CB000FFF7FCFB91E7C046F0270020FFFFFF8FA6
:106CC000642300203C2300203C89010070B50500AE
:106CD0000124064BA200D258002A06D02100280029
:106CE0000134FFF75DFF0A2CF3D170BD8001002055
:106CF0000B4BCAB20B488901C9185301C31859611B
:106D000099690832890B89039961036852019A18BD
:106D10000223D3715179823B0B4353717047C046B4
:106D200064230020F0270020084B8A00D05810B5BB
:106D3000002803D00368DB68984710BDC9B2044B34
:106D40004901591888688004800CF6E73C2300202C
:106D5000F027002010B50C00FFF7E6FF00280CD04C
:106D6000064BE4B21B68083464011C198023627965
:106D70005B42134363710223E37110BDF0270020CF
:106D800070B5CBB2124A13485C0189018918021907
:106D900051609168104D08330D40802189022943CC
:106DA000402591609168890B8903916001685A01BF
:106DB0008A1816793543157195796D06FCD55B01F6
:106DC000C918CB79DB07FCD500198068C0B270BD4B
:106DD00024250020F0270020FF3F00F070B51400AC
:106DE00040220B4B0D001B68FF3359790A435A713F
:106DF0000021FFF7C5FFA04200D92000002305496C
:106E0000A34203D0CA5CEA540133F9E770BDC0461F
:106E1000F02700202425002010B5C9B20B484901F5
:106E2000421893689B049B0C3F2B0BD99468403B02
:106E30009B04A40B9B0CA403234393604118886814
:106E4000C0B210BD93689B0B9B03F6E7F0270020B0
:106E5000F0B51C002F4B85B01B6806000D00019299
:106E6000002B54D02C4F3978C9B2002902D10C2004
:106E700001F0D8F964233B70284BAA00D0580028B1
:106E800008D0036822005B6801999847040020003D
:106E900005B0F0BD29003000FFF746FF844204D959
:106EA00029003000FFF740FF040029003000FFF701
:106EB000B3FF0121EBB21A4F03935B010293029AD5
:106EC0003B6801989B18FF335A7A0A435A72154B54
:106ED000A901C918220004F093FA002CD7D0290088
:106EE0003000FFF721FF0028D1D14021039B3A68F1
:106EF00008335B01D3181879014319710121D97145
:106F0000029BD318FF339A7A0A439A72BFE701248F
:106F10006442BCE7E8270020582300203C230020DF
:106F2000F02700202425002013B56B46DC1D22002D
:106F30000123FFF78DFF012801D1207816BD012024
:106F40004042FBE7F0B51E003A4B85B01B680F00CE
:106F50000192002B3FD08023DB019E423BD8364C70
:106F60002178C9B2002902D10B2001F05BF964231A
:106F700000252370314BBA01D3180293002E2CD078
:106F80002F4B1B680393FF233B401C0000930834E6
:106F9000039B64011C19A379DB0921D0294B2A49E1
:106FA000186801F0F3FA294B1721584301F0EEFA63
:106FB000274BE279920713D4DA5D002A01D1013818
:106FC000F7D20122DA55009B5A011D4B9B189A6992
:106FD000920B92039A6101256D42280005B0F0BD25
:106FE00000221B4B3400DA55402E00D940242200E9
:106FF0000199029804F004FA009BA1045A01104B75
:10700000890C9B18029A2D195A619A69361B920BAA
:1070100092030A439A61009B039A08335B01D318D9
:107020000222DA715979823A0A435A71019B1B197B
:107030000193A3E7E82700205923002064230020C0
:10704000F0270020A801002040420F00701101002D
:107050005B23002070B50D001C000D4BAE01F6182F
:1070600011003000220004F0CBF9EDB209496D01A6
:107070004D196E61AB69084A20001340AB61AB69E2
:10708000A2049B0B920C9B031343AB6170BDC046E3
:1070900064230020F0270020FF3F00F0F7B5104BDD
:1070A00001901B780F001500002B0CD10D4B160022
:1070B0001C78002C09D00C4E0C4834882018641918
:1070C00004F09EF934802800FEBD002EFBD03A1952
:1070D000330000210198FFF7BDFF2418361AF4E7AA
:1070E000E4260020E5270020E6270020E5260020F2
:1070F000F8B5002000AF0E001500012A27D9D31DD6
:107100006A46DB08DB00D31A9D46080005F0C6FA84
:107110006C4603230222002101304000207063707E
:10712000AA420DD2307800280AD0531CDBB20136B7
:10713000A0549D4203D00232E154D2B2F0E72A00BB
:1071400021000448FFF7AAFF431E9841C0B2BD4684
:10715000F8BDC04638230020F0B50024012685B0D4
:10716000184B0F0069461E7005000094FFF7F6FBF0
:10717000154B01A90B806A3BFF3BCB716E3B0B7239
:10718000009B8C7109334B800E4B4E7108711C7043
:107190003A00092F0FD00D4F09223E700C4E2800E7
:1071A00000943480FFF77AFF69462800FFF7D6FB8A
:1071B000328808493C702800FFF770FF012005B0B5
:1071C000F0BDC046E426002009020000E5270020AB
:1071D000E6270020E5260020F0B5CF7893B0050023
:1071E0000E00022F09D1C9882D48FFF7B5FF441EB4
:1071F000A041C4B2200013B0F0BD01F051F931003C
:1072000001F01EF9002803D0C417241AE40FF1E797
:10721000012F0FD1F288082A0AD02249112A13D847
:10722000D2B2002A10D02800FFF738FF0124E1E78E
:107230001D49F5E70400032FDCD1B378002B05D1FD
:10724000F2881A49032AEBD90A78ECE7022B06D117
:10725000B27917492800FFF74BFF0400CAE7012B5A
:1072600002D1B2791349F5E7032BC3D1124B01A91F
:107270001868FFF701F9114B03A91868FFF7FCF82C
:107280000F4B05A91868FFF7F7F80E4B07A9186808
:10729000FFF7F2F86B460533DC77B27901A9D9E73D
:1072A0003823002074890100868901006A89010061
:1072B0005C8901006E8901000CA0800040A0800064
:1072C00044A0800048A0800037B5040048780D0035
:1072D0000B2810D801F046F9061B0F2B0F40456D07
:1072E000494C6669097801AA002906D10223118058
:1072F0002000FFF7AFFE01203EBD002313802E4B80
:107300001B78012B00D1137002230021F0E78A784B
:107310000023012A03D101AA1380284BF0E7264A53
:107320001370274A93699B0B9B039361E3E78D7866
:10733000012D06D10021214B01AA1D7011702B00D7
:10734000D6E70120002DD7D11B4B1D4A1870936939
:107350009B0B9B039361CFE789782000FFF7DAFB53
:10736000C9E72000FFF738FFC6E70123154ACCE73D
:107370000B780020DB06BFD12000FFF7A7FC2A20F6
:10738000AA78104BFF301A6002230D4A11680C5C7A
:1073900023434A240B54FF340B5D2938FF38034341
:1073A0000B55D4E70123084AAFE78A78064B1A60E9
:1073B000B7E70020A0E7C0465A2300206223002040
:1073C000F0270020E8270020EC270020474BF7B5E6
:1073D0001C780600002C7CD1454D2B689B8B1B072D
:1073E0000ED521002000FFF761F82A681023110054
:1073F000FF31887A03438B723E4B1C6008239383D2
:107400002B689A8B52071FD504229A833A4A137825
:10741000002B0AD01378013BDBB213701378002BDA
:1074200003D101210B2000F0FDFE344A1378002B1C
:107430000AD01378013BDBB213701378002B03D111
:1074400001210C2000F0EEFE2B68FF331A7AD206E1
:107450001ED510221A72597930320A435A716023AC
:10746000274930000A781A4234D1FFF72DFF2B68E4
:10747000FF33002831D08022997952420A439A7111
:107480001A7A520604D540221A72597A0A435A725D
:10749000012427002B681B8CA343DBB20193019BC3
:1074A00023413B4212D023002A6808335B01D318E2
:1074B000DA79D20702D4DB799B0707D5114BA200FA
:1074C000D05800280DD003681B6898470134082C59
:1074D000E5D1F7BDFFF742FBC9E720210A4A9171C8
:1074E000CEE7E1B23000FFF74FFAEFE7E5270020E3
:1074F000F0270020E82700205923002058230020EF
:10750000242500203C230020FF50004110B50248F4
:10751000FFF75CFF10BDC04638230020014B024A34
:107520001A607047F027002000500041012070478A
:1075300010B50368014A1B6A984710BD1304000088
:107540000300FC33D9699A69914203D0DB69C01802
:10755000007D704701204042FBE710B50400006940
:10756000FEF7FCFB22000023FC329361D3618622EC
:107570009200A4186360A36010BDF0200140303970
:10758000484248417047F0231B01194080230620E0
:107590009B0099420AD00133FF330130994205D054
:1075A000802302385B00994200D0002070470F20F2
:1075B00001400020012903D00239481E8141481CA6
:1075C000704700008923F0B5182685B002919B0012
:1075D0000400C05C330008214343324D1700EB1810
:1075E000595600F06DFE304B0821E05C33004343F8
:1075F000EB18595600F064FE2C4BE25C0393022A10
:1076000009D11133E05CFF2805D008214643AE19AB
:10761000715600F055FE8A26B600A05DFF2819D0ED
:10762000012100F0CFFD1822A35D21495A43AB563A
:10763000AD18DB0158188B21890060501D490122CB
:107640005B188C218900635069688A408D2189000C
:1076500062501A600122029B11002069FEF7BEFDF4
:1076600039002000FFF78FFF390005002000FFF7E9
:107670009EFF390006002000FFF77FFF33000090D7
:10768000290020690122FEF739FB0B4B2069E25CDF
:10769000039BE15CFEF74FFB2069FEF76CFB05B036
:1076A000F0BDC0463487010025020000270200001B
:1076B000184400411444004126020000802210B505
:1076C00004005200002103F0B7FE23000022FC3327
:1076D0005A6020009A6010BDF7B51D0008AB1B78FA
:1076E0000400009309AB1B7816000193002343604C
:1076F000FA239B008360114B0F00083303601430A2
:10770000FFF7DCFF20001D30FF30FFF7D7FF892394
:107710006A469B002761E654094B1278E554094BF1
:107720002000E2546A46084B1279E2548A22293B2F
:10773000FF3B9200A3541032A354FEBD9889010070
:107740002502000026020000270200000300FC338F
:1077500059689A68914204DB5A689868801AFF3029
:10776000704798685B68C01A0138F9E710B51D309A
:10777000FF30FFF7EBFF10BD030070B5FC33D96994
:107780009A69040091421AD0DA698218157DDA6983
:107790000132D2B2DA618A239B00E35CFF2B0CD06A
:1077A00020001430FFF7D2FF0A2806DD8C238D223B
:1077B0009B009200E358A2581A60280070BD012572
:1077C0006D42E8E70300FC3358689B68C01A01D596
:1077D0000130FF30704710B5040020001D30FF302D
:1077E000FFF7F0FF0028F8D12069FEF7CEFA10BDB0
:1077F00010B51430FFF7E6FF10BD10B504000069A6
:10780000FEF7DFFA002805D02069FEF7EAFA2069C2
:10781000FEF7DCFA2069FEF7C4FA002820D02069C0
:10782000FEF7DFFA2200FC329369D1690133DBB243
:107830008B4203D091696118087593618A239B007C
:10784000E35CFF2B0CD020001430FFF77FFF0928EA
:1078500006DC8B238D229B009200E358A2581A600D
:107860002069FEF7B9FA00281AD020001D30FF3039
:10787000FFF7A8FF002822D086239B00E318996811
:107880005A68914218D08E219A684900A218515C1A
:107890009A680132D2B29A60C9B22069FEF7A5FA9D
:1078A0002069FEF783FA002805D02069FEF782FAE6
:1078B0002069FEF772FA10BD01214942ECE7206908
:1078C000FEF79FFAECE7000070B5040000690D00B8
:1078D000FEF782FA00283ED1FF2686239B00E3189C
:1078E0005A689968013232408A4223D1EFF31083FB
:1078F000DB070DD41E4B5B68DB05DB0DEDD0103BC9
:107900005BB2002B0DDB9B08C0331A4A9B009B58CF
:107910002069FEF761FA0028DFD02000FFF76DFF35
:10792000DBE70F221340083B9B08134A9B009B1880
:107930001B68EDE75A68013216409A68964205D0F6
:107940008E215A684900A21855545E602069FEF7DE
:1079500054FA012070BD20001D30FF30FFF732FFC8
:107960000028B9D129002069FEF73FFAF1E7C046A7
:1079700000ED00E000E100E01CED00E0F7B5009252
:10798000182216254243514B07009B185D57019161
:107990006B1C52D04E4B4F4C1E68002E2BD1310029
:1079A00044224D4803F048FD310044224B4803F087
:1079B00043FD10224A4B4B491E604B4BCA67BFF335
:1079C0004F8FBFF36F8FC021C12049005A508000F4
:1079D0001958FF36B14319501A60444B444A5A8033
:1079E00002232278134323706378DB09012BFBD039
:1079F0000122374B1A6001231E00AE4062693243F8
:107A00006261019A002A18D0102D1FD1E278134329
:107A1000E370009B042B0BD818000723A2789A432D
:107A200000F0A0FD030C0E10120005231343A370F9
:107A30002A4B019A1A64B6B2E660F7BD0423F5E753
:107A40000323F3E70223F1E70123EFE738000027E0
:107A5000002100F035FC224B1F499C461B68BA00F0
:107A6000BB421DD16046013303608E501B4B019910
:107A70009950072D19DD0123083DAD000721A940CC
:107A8000144A9B009B189A698A439A61009A042AB7
:107A9000D1D81000996900F065FD0B101214160082
:107AA0008858B042E1D00137D9E7AD000023E5E7BF
:107AB0000522AA400A439A61BDE70422F9E703229E
:107AC000F7E70222F5E70122F3E7C0463487010019
:107AD0007C2900200018004038290020F4280020CC
